{
  "_format": "hh-sol-artifact-1",
  "contractName": "UkraineArtCoNFT",
  "sourceName": "contracts/NFTGiveaway.sol",
  "abi": [
    {
      "inputs": [],
      "stateMutability": "nonpayable",
      "type": "constructor"
    },
    {
      "anonymous": false,
      "inputs": [
        {
          "indexed": true,
          "internalType": "address",
          "name": "account",
          "type": "address"
        },
        {
          "indexed": true,
          "internalType": "address",
          "name": "operator",
          "type": "address"
        },
        {
          "indexed": false,
          "internalType": "bool",
          "name": "approved",
          "type": "bool"
        }
      ],
      "name": "ApprovalForAll",
      "type": "event"
    },
    {
      "anonymous": false,
      "inputs": [
        {
          "indexed": true,
          "internalType": "uint256",
          "name": "tokenId",
          "type": "uint256"
        },
        {
          "indexed": false,
          "internalType": "address",
          "name": "owner",
          "type": "address"
        }
      ],
      "name": "MarketItemSold",
      "type": "event"
    },
    {
      "anonymous": false,
      "inputs": [
        {
          "indexed": true,
          "internalType": "address",
          "name": "previousOwner",
          "type": "address"
        },
        {
          "indexed": true,
          "internalType": "address",
          "name": "newOwner",
          "type": "address"
        }
      ],
      "name": "OwnershipTransferred",
      "type": "event"
    },
    {
      "anonymous": false,
      "inputs": [
        {
          "indexed": true,
          "internalType": "address",
          "name": "operator",
          "type": "address"
        },
        {
          "indexed": true,
          "internalType": "address",
          "name": "from",
          "type": "address"
        },
        {
          "indexed": true,
          "internalType": "address",
          "name": "to",
          "type": "address"
        },
        {
          "indexed": false,
          "internalType": "uint256[]",
          "name": "ids",
          "type": "uint256[]"
        },
        {
          "indexed": false,
          "internalType": "uint256[]",
          "name": "values",
          "type": "uint256[]"
        }
      ],
      "name": "TransferBatch",
      "type": "event"
    },
    {
      "anonymous": false,
      "inputs": [
        {
          "indexed": true,
          "internalType": "address",
          "name": "operator",
          "type": "address"
        },
        {
          "indexed": true,
          "internalType": "address",
          "name": "from",
          "type": "address"
        },
        {
          "indexed": true,
          "internalType": "address",
          "name": "to",
          "type": "address"
        },
        {
          "indexed": false,
          "internalType": "uint256",
          "name": "id",
          "type": "uint256"
        },
        {
          "indexed": false,
          "internalType": "uint256",
          "name": "value",
          "type": "uint256"
        }
      ],
      "name": "TransferSingle",
      "type": "event"
    },
    {
      "anonymous": false,
      "inputs": [
        {
          "indexed": false,
          "internalType": "string",
          "name": "value",
          "type": "string"
        },
        {
          "indexed": true,
          "internalType": "uint256",
          "name": "id",
          "type": "uint256"
        }
      ],
      "name": "URI",
      "type": "event"
    },
    {
      "inputs": [
        {
          "internalType": "address",
          "name": "account",
          "type": "address"
        },
        {
          "internalType": "uint256",
          "name": "id",
          "type": "uint256"
        }
      ],
      "name": "balanceOf",
      "outputs": [
        {
          "internalType": "uint256",
          "name": "",
          "type": "uint256"
        }
      ],
      "stateMutability": "view",
      "type": "function"
    },
    {
      "inputs": [
        {
          "internalType": "address[]",
          "name": "accounts",
          "type": "address[]"
        },
        {
          "internalType": "uint256[]",
          "name": "ids",
          "type": "uint256[]"
        }
      ],
      "name": "balanceOfBatch",
      "outputs": [
        {
          "internalType": "uint256[]",
          "name": "",
          "type": "uint256[]"
        }
      ],
      "stateMutability": "view",
      "type": "function"
    },
    {
      "inputs": [],
      "name": "charityDestinationWallet",
      "outputs": [
        {
          "internalType": "address payable",
          "name": "",
          "type": "address"
        }
      ],
      "stateMutability": "view",
      "type": "function"
    },
    {
      "inputs": [
        {
          "internalType": "address",
          "name": "account",
          "type": "address"
        },
        {
          "internalType": "address",
          "name": "operator",
          "type": "address"
        }
      ],
      "name": "isApprovedForAll",
      "outputs": [
        {
          "internalType": "bool",
          "name": "",
          "type": "bool"
        }
      ],
      "stateMutability": "view",
      "type": "function"
    },
    {
      "inputs": [
        {
          "internalType": "uint256",
          "name": "",
          "type": "uint256"
        }
      ],
      "name": "marketItems",
      "outputs": [
        {
          "internalType": "uint256",
          "name": "",
          "type": "uint256"
        }
      ],
      "stateMutability": "view",
      "type": "function"
    },
    {
      "inputs": [],
      "name": "minimumDonation",
      "outputs": [
        {
          "internalType": "uint256",
          "name": "",
          "type": "uint256"
        }
      ],
      "stateMutability": "view",
      "type": "function"
    },
    {
      "inputs": [
        {
          "internalType": "string",
          "name": "tokenUri",
          "type": "string"
        }
      ],
      "name": "mint",
      "outputs": [
        {
          "internalType": "uint256",
          "name": "",
          "type": "uint256"
        }
      ],
      "stateMutability": "payable",
      "type": "function"
    },
    {
      "inputs": [],
      "name": "owner",
      "outputs": [
        {
          "internalType": "address",
          "name": "",
          "type": "address"
        }
      ],
      "stateMutability": "view",
      "type": "function"
    },
    {
      "inputs": [],
      "name": "renounceOwnership",
      "outputs": [],
      "stateMutability": "nonpayable",
      "type": "function"
    },
    {
      "inputs": [
        {
          "internalType": "address",
          "name": "from",
          "type": "address"
        },
        {
          "internalType": "address",
          "name": "to",
          "type": "address"
        },
        {
          "internalType": "uint256[]",
          "name": "ids",
          "type": "uint256[]"
        },
        {
          "internalType": "uint256[]",
          "name": "amounts",
          "type": "uint256[]"
        },
        {
          "internalType": "bytes",
          "name": "data",
          "type": "bytes"
        }
      ],
      "name": "safeBatchTransferFrom",
      "outputs": [],
      "stateMutability": "nonpayable",
      "type": "function"
    },
    {
      "inputs": [
        {
          "internalType": "address",
          "name": "from",
          "type": "address"
        },
        {
          "internalType": "address",
          "name": "to",
          "type": "address"
        },
        {
          "internalType": "uint256",
          "name": "id",
          "type": "uint256"
        },
        {
          "internalType": "uint256",
          "name": "amount",
          "type": "uint256"
        },
        {
          "internalType": "bytes",
          "name": "data",
          "type": "bytes"
        }
      ],
      "name": "safeTransferFrom",
      "outputs": [],
      "stateMutability": "nonpayable",
      "type": "function"
    },
    {
      "inputs": [
        {
          "internalType": "address",
          "name": "operator",
          "type": "address"
        },
        {
          "internalType": "bool",
          "name": "approved",
          "type": "bool"
        }
      ],
      "name": "setApprovalForAll",
      "outputs": [],
      "stateMutability": "nonpayable",
      "type": "function"
    },
    {
      "inputs": [
        {
          "internalType": "address payable",
          "name": "newWallet",
          "type": "address"
        }
      ],
      "name": "setDonationWallet",
      "outputs": [],
      "stateMutability": "nonpayable",
      "type": "function"
    },
    {
      "inputs": [
        {
          "internalType": "uint256",
          "name": "newValue",
          "type": "uint256"
        }
      ],
      "name": "setMinimumDonation",
      "outputs": [],
      "stateMutability": "nonpayable",
      "type": "function"
    },
    {
      "inputs": [
        {
          "internalType": "string",
          "name": "newUri",
          "type": "string"
        }
      ],
      "name": "setURI",
      "outputs": [],
      "stateMutability": "nonpayable",
      "type": "function"
    },
    {
      "inputs": [
        {
          "internalType": "bytes4",
          "name": "interfaceId",
          "type": "bytes4"
        }
      ],
      "name": "supportsInterface",
      "outputs": [
        {
          "internalType": "bool",
          "name": "",
          "type": "bool"
        }
      ],
      "stateMutability": "view",
      "type": "function"
    },
    {
      "inputs": [
        {
          "internalType": "address",
          "name": "newOwner",
          "type": "address"
        }
      ],
      "name": "transferOwnership",
      "outputs": [],
      "stateMutability": "nonpayable",
      "type": "function"
    },
    {
      "inputs": [
        {
          "internalType": "uint256",
          "name": "",
          "type": "uint256"
        }
      ],
      "name": "uri",
      "outputs": [
        {
          "internalType": "string",
          "name": "",
          "type": "string"
        }
      ],
      "stateMutability": "view",
      "type": "function"
    }
  ],
  "bytecode": "0x60806040523480156200001157600080fd5b50604051806020016040528060008152506200003381620000bd60201b60201c565b506200005462000048620000d960201b60201c565b620000e160201b60201c565b73a4166bc4be559b762b346cb4aaad3b051e584e39600560006101000a81548173ffffffffffffffffffffffffffffffffffffffff021916908373ffffffffffffffffffffffffffffffffffffffff160217905550662386f26fc10000600781905550620002bc565b8060029080519060200190620000d5929190620001a7565b5050565b600033905090565b6000600360009054906101000a900473ffffffffffffffffffffffffffffffffffffffff16905081600360006101000a81548173ffffffffffffffffffffffffffffffffffffffff021916908373ffffffffffffffffffffffffffffffffffffffff1602179055508173ffffffffffffffffffffffffffffffffffffffff168173ffffffffffffffffffffffffffffffffffffffff167f8be0079c531659141344cd1fd0a4f28419497f9722a3daafe3b4186f6b6457e060405160405180910390a35050565b828054620001b59062000257565b90600052602060002090601f016020900481019282620001d9576000855562000225565b82601f10620001f457805160ff191683800117855562000225565b8280016001018555821562000225579182015b828111156200022457825182559160200191906001019062000207565b5b50905062000234919062000238565b5090565b5b808211156200025357600081600090555060010162000239565b5090565b600060028204905060018216806200027057607f821691505b602082108114156200028757620002866200028d565b5b50919050565b7f4e487b7100000000000000000000000000000000000000000000000000000000600052602260045260246000fd5b6134ce80620002cc6000396000f3fe6080604052600436106101085760003560e01c80638da5cb5b11610095578063d85d3d2711610064578063d85d3d2714610378578063dee442b1146103a8578063e985e9c5146103d3578063f242432a14610410578063f2fde38b1461043957610108565b80638da5cb5b146102d057806396d8f4f3146102fb578063a22cb46514610326578063c63172471461034f57610108565b80632eb2c2d6116100dc5780632eb2c2d6146101ed5780634e1273f41461021657806351f28e14146102535780635a96cdd714610290578063715018a6146102b957610108565b8062fdd58e1461010d57806301ffc9a71461014a57806302fe5305146101875780630e89341c146101b0575b600080fd5b34801561011957600080fd5b50610134600480360381019061012f919061238f565b610462565b6040516101419190612b5e565b60405180910390f35b34801561015657600080fd5b50610171600480360381019061016c9190612437565b61052b565b60405161017e9190612961565b60405180910390f35b34801561019357600080fd5b506101ae60048036038101906101a99190612489565b61060d565b005b3480156101bc57600080fd5b506101d760048036038101906101d291906124ca565b610695565b6040516101e4919061297c565b60405180910390f35b3480156101f957600080fd5b50610214600480360381019061020f9190612205565b610729565b005b34801561022257600080fd5b5061023d600480360381019061023891906123cb565b6107ca565b60405161024a9190612908565b60405180910390f35b34801561025f57600080fd5b5061027a600480360381019061027591906124ca565b61097b565b6040516102879190612b5e565b60405180910390f35b34801561029c57600080fd5b506102b760048036038101906102b291906121a0565b610993565b005b3480156102c557600080fd5b506102ce610a53565b005b3480156102dc57600080fd5b506102e5610adb565b6040516102f29190612810565b60405180910390f35b34801561030757600080fd5b50610310610b05565b60405161031d9190612b5e565b60405180910390f35b34801561033257600080fd5b5061034d60048036038101906103489190612353565b610b0b565b005b34801561035b57600080fd5b50610376600480360381019061037191906124ca565b610b21565b005b610392600480360381019061038d9190612489565b610ba7565b60405161039f9190612b5e565b60405180910390f35b3480156103b457600080fd5b506103bd610ced565b6040516103ca919061282b565b60405180910390f35b3480156103df57600080fd5b506103fa60048036038101906103f591906121c9565b610d13565b6040516104079190612961565b60405180910390f35b34801561041c57600080fd5b50610437600480360381019061043291906122c4565b610da7565b005b34801561044557600080fd5b50610460600480360381019061045b9190612177565b610e48565b005b60008073ffffffffffffffffffffffffffffffffffffffff168373ffffffffffffffffffffffffffffffffffffffff1614156104d3576040517f08c379a00000000000000000000000000000000000000000000000000000000081526004016104ca906129de565b60405180910390fd5b60008083815260200190815260200160002060008473ffffffffffffffffffffffffffffffffffffffff1673ffffffffffffffffffffffffffffffffffffffff16815260200190815260200160002054905092915050565b60007fd9b67a26000000000000000000000000000000000000000000000000000000007bffffffffffffffffffffffffffffffffffffffffffffffffffffffff1916827bffffffffffffffffffffffffffffffffffffffffffffffffffffffff191614806105f657507f0e89341c000000000000000000000000000000000000000000000000000000007bffffffffffffffffffffffffffffffffffffffffffffffffffffffff1916827bffffffffffffffffffffffffffffffffffffffffffffffffffffffff1916145b80610606575061060582610f40565b5b9050919050565b610615610faa565b73ffffffffffffffffffffffffffffffffffffffff16610633610adb565b73ffffffffffffffffffffffffffffffffffffffff1614610689576040517f08c379a000000000000000000000000000000000000000000000000000000000815260040161068090612a9e565b60405180910390fd5b61069281610fb2565b50565b6060600280546106a490612e10565b80601f01602080910402602001604051908101604052809291908181526020018280546106d090612e10565b801561071d5780601f106106f25761010080835404028352916020019161071d565b820191906000526020600020905b81548152906001019060200180831161070057829003601f168201915b50505050509050919050565b610731610faa565b73ffffffffffffffffffffffffffffffffffffffff168573ffffffffffffffffffffffffffffffffffffffff161480610777575061077685610771610faa565b610d13565b5b6107b6576040517f08c379a00000000000000000000000000000000000000000000000000000000081526004016107ad90612a5e565b60405180910390fd5b6107c38585858585610fcc565b5050505050565b60608151835114610810576040517f08c379a000000000000000000000000000000000000000000000000000000000815260040161080790612afe565b60405180910390fd5b6000835167ffffffffffffffff811115610853577f4e487b7100000000000000000000000000000000000000000000000000000000600052604160045260246000fd5b6040519080825280602002602001820160405280156108815781602001602082028036833780820191505090505b50905060005b84518110156109705761091a8582815181106108cc577f4e487b7100000000000000000000000000000000000000000000000000000000600052603260045260246000fd5b602002602001015185838151811061090d577f4e487b7100000000000000000000000000000000000000000000000000000000600052603260045260246000fd5b6020026020010151610462565b828281518110610953577f4e487b7100000000000000000000000000000000000000000000000000000000600052603260045260246000fd5b6020026020010181815250508061096990612e73565b9050610887565b508091505092915050565b60066020528060005260406000206000915090505481565b61099b610faa565b73ffffffffffffffffffffffffffffffffffffffff166109b9610adb565b73ffffffffffffffffffffffffffffffffffffffff1614610a0f576040517f08c379a0000000000000000000000000000000000000000000000000000000008152600401610a0690612a9e565b60405180910390fd5b80600560006101000a81548173ffffffffffffffffffffffffffffffffffffffff021916908373ffffffffffffffffffffffffffffffffffffffff16021790555050565b610a5b610faa565b73ffffffffffffffffffffffffffffffffffffffff16610a79610adb565b73ffffffffffffffffffffffffffffffffffffffff1614610acf576040517f08c379a0000000000000000000000000000000000000000000000000000000008152600401610ac690612a9e565b60405180910390fd5b610ad9600061132c565b565b6000600360009054906101000a900473ffffffffffffffffffffffffffffffffffffffff16905090565b60075481565b610b1d610b16610faa565b83836113f2565b5050565b610b29610faa565b73ffffffffffffffffffffffffffffffffffffffff16610b47610adb565b73ffffffffffffffffffffffffffffffffffffffff1614610b9d576040517f08c379a0000000000000000000000000000000000000000000000000000000008152600401610b9490612a9e565b60405180910390fd5b8060078190555050565b6000600754341015610bee576040517f08c379a0000000000000000000000000000000000000000000000000000000008152600401610be590612abe565b60405180910390fd5b6000610bfa600461155f565b9050346006600083815260200190815260200160002081905550610c30338260016040518060200160405280600081525061156d565b610c3983610fb2565b610c436004611703565b807f2073b2706c235effb1e3840575370a51749afd8181b4018f93bff955d50792cb33604051610c739190612810565b60405180910390a2600560009054906101000a900473ffffffffffffffffffffffffffffffffffffffff1673ffffffffffffffffffffffffffffffffffffffff166108fc349081150290604051600060405180830381858888f19350505050158015610ce3573d6000803e3d6000fd5b5080915050919050565b600560009054906101000a900473ffffffffffffffffffffffffffffffffffffffff1681565b6000600160008473ffffffffffffffffffffffffffffffffffffffff1673ffffffffffffffffffffffffffffffffffffffff16815260200190815260200160002060008373ffffffffffffffffffffffffffffffffffffffff1673ffffffffffffffffffffffffffffffffffffffff16815260200190815260200160002060009054906101000a900460ff16905092915050565b610daf610faa565b73ffffffffffffffffffffffffffffffffffffffff168573ffffffffffffffffffffffffffffffffffffffff161480610df55750610df485610def610faa565b610d13565b5b610e34576040517f08c379a0000000000000000000000000000000000000000000000000000000008152600401610e2b90612a1e565b60405180910390fd5b610e418585858585611719565b5050505050565b610e50610faa565b73ffffffffffffffffffffffffffffffffffffffff16610e6e610adb565b73ffffffffffffffffffffffffffffffffffffffff1614610ec4576040517f08c379a0000000000000000000000000000000000000000000000000000000008152600401610ebb90612a9e565b60405180910390fd5b600073ffffffffffffffffffffffffffffffffffffffff168173ffffffffffffffffffffffffffffffffffffffff161415610f34576040517f08c379a0000000000000000000000000000000000000000000000000000000008152600401610f2b906129fe565b60405180910390fd5b610f3d8161132c565b50565b60007f01ffc9a7000000000000000000000000000000000000000000000000000000007bffffffffffffffffffffffffffffffffffffffffffffffffffffffff1916827bffffffffffffffffffffffffffffffffffffffffffffffffffffffff1916149050919050565b600033905090565b8060029080519060200190610fc8929190611e5a565b5050565b8151835114611010576040517f08c379a000000000000000000000000000000000000000000000000000000000815260040161100790612b1e565b60405180910390fd5b600073ffffffffffffffffffffffffffffffffffffffff168473ffffffffffffffffffffffffffffffffffffffff161415611080576040517f08c379a000000000000000000000000000000000000000000000000000000000815260040161107790612a3e565b60405180910390fd5b600061108a610faa565b905061109a81878787878761199b565b60005b84518110156112975760008582815181106110e1577f4e487b7100000000000000000000000000000000000000000000000000000000600052603260045260246000fd5b602002602001015190506000858381518110611126577f4e487b7100000000000000000000000000000000000000000000000000000000600052603260045260246000fd5b60200260200101519050600080600084815260200190815260200160002060008b73ffffffffffffffffffffffffffffffffffffffff1673ffffffffffffffffffffffffffffffffffffffff168152602001908152602001600020549050818110156111c7576040517f08c379a00000000000000000000000000000000000000000000000000000000081526004016111be90612a7e565b60405180910390fd5b81810360008085815260200190815260200160002060008c73ffffffffffffffffffffffffffffffffffffffff1673ffffffffffffffffffffffffffffffffffffffff168152602001908152602001600020819055508160008085815260200190815260200160002060008b73ffffffffffffffffffffffffffffffffffffffff1673ffffffffffffffffffffffffffffffffffffffff168152602001908152602001600020600082825461127c9190612cf2565b925050819055505050508061129090612e73565b905061109d565b508473ffffffffffffffffffffffffffffffffffffffff168673ffffffffffffffffffffffffffffffffffffffff168273ffffffffffffffffffffffffffffffffffffffff167f4a39dc06d4c0dbc64b70af90fd698a233a518aa5d07e595d983b8c0526c8f7fb878760405161130e92919061292a565b60405180910390a46113248187878787876119a3565b505050505050565b6000600360009054906101000a900473ffffffffffffffffffffffffffffffffffffffff16905081600360006101000a81548173ffffffffffffffffffffffffffffffffffffffff021916908373ffffffffffffffffffffffffffffffffffffffff1602179055508173ffffffffffffffffffffffffffffffffffffffff168173ffffffffffffffffffffffffffffffffffffffff167f8be0079c531659141344cd1fd0a4f28419497f9722a3daafe3b4186f6b6457e060405160405180910390a35050565b8173ffffffffffffffffffffffffffffffffffffffff168373ffffffffffffffffffffffffffffffffffffffff161415611461576040517f08c379a000000000000000000000000000000000000000000000000000000000815260040161145890612ade565b60405180910390fd5b80600160008573ffffffffffffffffffffffffffffffffffffffff1673ffffffffffffffffffffffffffffffffffffffff16815260200190815260200160002060008473ffffffffffffffffffffffffffffffffffffffff1673ffffffffffffffffffffffffffffffffffffffff16815260200190815260200160002060006101000a81548160ff0219169083151502179055508173ffffffffffffffffffffffffffffffffffffffff168373ffffffffffffffffffffffffffffffffffffffff167f17307eab39ab6107e8899845ad3d59bd9653f200f220920489ca2b5937696c31836040516115529190612961565b60405180910390a3505050565b600081600001549050919050565b600073ffffffffffffffffffffffffffffffffffffffff168473ffffffffffffffffffffffffffffffffffffffff1614156115dd576040517f08c379a00000000000000000000000000000000000000000000000000000000081526004016115d490612b3e565b60405180910390fd5b60006115e7610faa565b9050611608816000876115f988611b8a565b61160288611b8a565b8761199b565b8260008086815260200190815260200160002060008773ffffffffffffffffffffffffffffffffffffffff1673ffffffffffffffffffffffffffffffffffffffff16815260200190815260200160002060008282546116679190612cf2565b925050819055508473ffffffffffffffffffffffffffffffffffffffff16600073ffffffffffffffffffffffffffffffffffffffff168273ffffffffffffffffffffffffffffffffffffffff167fc3d58168c5ae7397731d063d5bbf3d657854427343f4c083240f7aacaa2d0f6287876040516116e5929190612b79565b60405180910390a46116fc81600087878787611c50565b5050505050565b6001816000016000828254019250508190555050565b600073ffffffffffffffffffffffffffffffffffffffff168473ffffffffffffffffffffffffffffffffffffffff161415611789576040517f08c379a000000000000000000000000000000000000000000000000000000000815260040161178090612a3e565b60405180910390fd5b6000611793610faa565b90506117b38187876117a488611b8a565b6117ad88611b8a565b8761199b565b600080600086815260200190815260200160002060008873ffffffffffffffffffffffffffffffffffffffff1673ffffffffffffffffffffffffffffffffffffffff1681526020019081526020016000205490508381101561184a576040517f08c379a000000000000000000000000000000000000000000000000000000000815260040161184190612a7e565b60405180910390fd5b83810360008087815260200190815260200160002060008973ffffffffffffffffffffffffffffffffffffffff1673ffffffffffffffffffffffffffffffffffffffff168152602001908152602001600020819055508360008087815260200190815260200160002060008873ffffffffffffffffffffffffffffffffffffffff1673ffffffffffffffffffffffffffffffffffffffff16815260200190815260200160002060008282546118ff9190612cf2565b925050819055508573ffffffffffffffffffffffffffffffffffffffff168773ffffffffffffffffffffffffffffffffffffffff168373ffffffffffffffffffffffffffffffffffffffff167fc3d58168c5ae7397731d063d5bbf3d657854427343f4c083240f7aacaa2d0f62888860405161197c929190612b79565b60405180910390a4611992828888888888611c50565b50505050505050565b505050505050565b6119c28473ffffffffffffffffffffffffffffffffffffffff16611e37565b15611b82578373ffffffffffffffffffffffffffffffffffffffff1663bc197c8187878686866040518663ffffffff1660e01b8152600401611a08959493929190612846565b602060405180830381600087803b158015611a2257600080fd5b505af1925050508015611a5357506040513d601f19601f82011682018060405250810190611a509190612460565b60015b611af957611a5f612f49565b806308c379a01415611abc5750611a7461338f565b80611a7f5750611abe565b806040517f08c379a0000000000000000000000000000000000000000000000000000000008152600401611ab3919061297c565b60405180910390fd5b505b6040517f08c379a0000000000000000000000000000000000000000000000000000000008152600401611af09061299e565b60405180910390fd5b63bc197c8160e01b7bffffffffffffffffffffffffffffffffffffffffffffffffffffffff1916817bffffffffffffffffffffffffffffffffffffffffffffffffffffffff191614611b80576040517f08c379a0000000000000000000000000000000000000000000000000000000008152600401611b77906129be565b60405180910390fd5b505b505050505050565b60606000600167ffffffffffffffff811115611bcf577f4e487b7100000000000000000000000000000000000000000000000000000000600052604160045260246000fd5b604051908082528060200260200182016040528015611bfd5781602001602082028036833780820191505090505b5090508281600081518110611c3b577f4e487b7100000000000000000000000000000000000000000000000000000000600052603260045260246000fd5b60200260200101818152505080915050919050565b611c6f8473ffffffffffffffffffffffffffffffffffffffff16611e37565b15611e2f578373ffffffffffffffffffffffffffffffffffffffff1663f23a6e6187878686866040518663ffffffff1660e01b8152600401611cb59594939291906128ae565b602060405180830381600087803b158015611ccf57600080fd5b505af1925050508015611d0057506040513d601f19601f82011682018060405250810190611cfd9190612460565b60015b611da657611d0c612f49565b806308c379a01415611d695750611d2161338f565b80611d2c5750611d6b565b806040517f08c379a0000000000000000000000000000000000000000000000000000000008152600401611d60919061297c565b60405180910390fd5b505b6040517f08c379a0000000000000000000000000000000000000000000000000000000008152600401611d9d9061299e565b60405180910390fd5b63f23a6e6160e01b7bffffffffffffffffffffffffffffffffffffffffffffffffffffffff1916817bffffffffffffffffffffffffffffffffffffffffffffffffffffffff191614611e2d576040517f08c379a0000000000000000000000000000000000000000000000000000000008152600401611e24906129be565b60405180910390fd5b505b505050505050565b6000808273ffffffffffffffffffffffffffffffffffffffff163b119050919050565b828054611e6690612e10565b90600052602060002090601f016020900481019282611e885760008555611ecf565b82601f10611ea157805160ff1916838001178555611ecf565b82800160010185558215611ecf579182015b82811115611ece578251825591602001919060010190611eb3565b5b509050611edc9190611ee0565b5090565b5b80821115611ef9576000816000905550600101611ee1565b5090565b6000611f10611f0b84612bc7565b612ba2565b90508083825260208201905082856020860282011115611f2f57600080fd5b60005b85811015611f5f5781611f458882612051565b845260208401935060208301925050600181019050611f32565b5050509392505050565b6000611f7c611f7784612bf3565b612ba2565b90508083825260208201905082856020860282011115611f9b57600080fd5b60005b85811015611fcb5781611fb18882612162565b845260208401935060208301925050600181019050611f9e565b5050509392505050565b6000611fe8611fe384612c1f565b612ba2565b90508281526020810184848401111561200057600080fd5b61200b848285612dce565b509392505050565b600061202661202184612c50565b612ba2565b90508281526020810184848401111561203e57600080fd5b612049848285612dce565b509392505050565b60008135905061206081613425565b92915050565b6000813590506120758161343c565b92915050565b600082601f83011261208c57600080fd5b813561209c848260208601611efd565b91505092915050565b600082601f8301126120b657600080fd5b81356120c6848260208601611f69565b91505092915050565b6000813590506120de81613453565b92915050565b6000813590506120f38161346a565b92915050565b6000815190506121088161346a565b92915050565b600082601f83011261211f57600080fd5b813561212f848260208601611fd5565b91505092915050565b600082601f83011261214957600080fd5b8135612159848260208601612013565b91505092915050565b60008135905061217181613481565b92915050565b60006020828403121561218957600080fd5b600061219784828501612051565b91505092915050565b6000602082840312156121b257600080fd5b60006121c084828501612066565b91505092915050565b600080604083850312156121dc57600080fd5b60006121ea85828601612051565b92505060206121fb85828601612051565b9150509250929050565b600080600080600060a0868803121561221d57600080fd5b600061222b88828901612051565b955050602061223c88828901612051565b945050604086013567ffffffffffffffff81111561225957600080fd5b612265888289016120a5565b935050606086013567ffffffffffffffff81111561228257600080fd5b61228e888289016120a5565b925050608086013567ffffffffffffffff8111156122ab57600080fd5b6122b78882890161210e565b9150509295509295909350565b600080600080600060a086880312156122dc57600080fd5b60006122ea88828901612051565b95505060206122fb88828901612051565b945050604061230c88828901612162565b935050606061231d88828901612162565b925050608086013567ffffffffffffffff81111561233a57600080fd5b6123468882890161210e565b9150509295509295909350565b6000806040838503121561236657600080fd5b600061237485828601612051565b9250506020612385858286016120cf565b9150509250929050565b600080604083850312156123a257600080fd5b60006123b085828601612051565b92505060206123c185828601612162565b9150509250929050565b600080604083850312156123de57600080fd5b600083013567ffffffffffffffff8111156123f857600080fd5b6124048582860161207b565b925050602083013567ffffffffffffffff81111561242157600080fd5b61242d858286016120a5565b9150509250929050565b60006020828403121561244957600080fd5b6000612457848285016120e4565b91505092915050565b60006020828403121561247257600080fd5b6000612480848285016120f9565b91505092915050565b60006020828403121561249b57600080fd5b600082013567ffffffffffffffff8111156124b557600080fd5b6124c184828501612138565b91505092915050565b6000602082840312156124dc57600080fd5b60006124ea84828501612162565b91505092915050565b60006124ff83836127f2565b60208301905092915050565b61251481612d5a565b82525050565b61252381612d48565b82525050565b600061253482612c91565b61253e8185612cbf565b935061254983612c81565b8060005b8381101561257a57815161256188826124f3565b975061256c83612cb2565b92505060018101905061254d565b5085935050505092915050565b61259081612d6c565b82525050565b60006125a182612c9c565b6125ab8185612cd0565b93506125bb818560208601612ddd565b6125c481612f6b565b840191505092915050565b60006125da82612ca7565b6125e48185612ce1565b93506125f4818560208601612ddd565b6125fd81612f6b565b840191505092915050565b6000612615603483612ce1565b915061262082612f89565b604082019050919050565b6000612638602883612ce1565b915061264382612fd8565b604082019050919050565b600061265b602b83612ce1565b915061266682613027565b604082019050919050565b600061267e602683612ce1565b915061268982613076565b604082019050919050565b60006126a1602983612ce1565b91506126ac826130c5565b604082019050919050565b60006126c4602583612ce1565b91506126cf82613114565b604082019050919050565b60006126e7603283612ce1565b91506126f282613163565b604082019050919050565b600061270a602a83612ce1565b9150612715826131b2565b604082019050919050565b600061272d602083612ce1565b915061273882613201565b602082019050919050565b6000612750601c83612ce1565b915061275b8261322a565b602082019050919050565b6000612773602983612ce1565b915061277e82613253565b604082019050919050565b6000612796602983612ce1565b91506127a1826132a2565b604082019050919050565b60006127b9602883612ce1565b91506127c4826132f1565b604082019050919050565b60006127dc602183612ce1565b91506127e782613340565b604082019050919050565b6127fb81612dc4565b82525050565b61280a81612dc4565b82525050565b6000602082019050612825600083018461251a565b92915050565b6000602082019050612840600083018461250b565b92915050565b600060a08201905061285b600083018861251a565b612868602083018761251a565b818103604083015261287a8186612529565b9050818103606083015261288e8185612529565b905081810360808301526128a28184612596565b90509695505050505050565b600060a0820190506128c3600083018861251a565b6128d0602083018761251a565b6128dd6040830186612801565b6128ea6060830185612801565b81810360808301526128fc8184612596565b90509695505050505050565b600060208201905081810360008301526129228184612529565b905092915050565b600060408201905081810360008301526129448185612529565b905081810360208301526129588184612529565b90509392505050565b60006020820190506129766000830184612587565b92915050565b6000602082019050818103600083015261299681846125cf565b905092915050565b600060208201905081810360008301526129b781612608565b9050919050565b600060208201905081810360008301526129d78161262b565b9050919050565b600060208201905081810360008301526129f78161264e565b9050919050565b60006020820190508181036000830152612a1781612671565b9050919050565b60006020820190508181036000830152612a3781612694565b9050919050565b60006020820190508181036000830152612a57816126b7565b9050919050565b60006020820190508181036000830152612a77816126da565b9050919050565b60006020820190508181036000830152612a97816126fd565b9050919050565b60006020820190508181036000830152612ab781612720565b9050919050565b60006020820190508181036000830152612ad781612743565b9050919050565b60006020820190508181036000830152612af781612766565b9050919050565b60006020820190508181036000830152612b1781612789565b9050919050565b60006020820190508181036000830152612b37816127ac565b9050919050565b60006020820190508181036000830152612b57816127cf565b9050919050565b6000602082019050612b736000830184612801565b92915050565b6000604082019050612b8e6000830185612801565b612b9b6020830184612801565b9392505050565b6000612bac612bbd565b9050612bb88282612e42565b919050565b6000604051905090565b600067ffffffffffffffff821115612be257612be1612f1a565b5b602082029050602081019050919050565b600067ffffffffffffffff821115612c0e57612c0d612f1a565b5b602082029050602081019050919050565b600067ffffffffffffffff821115612c3a57612c39612f1a565b5b612c4382612f6b565b9050602081019050919050565b600067ffffffffffffffff821115612c6b57612c6a612f1a565b5b612c7482612f6b565b9050602081019050919050565b6000819050602082019050919050565b600081519050919050565b600081519050919050565b600081519050919050565b6000602082019050919050565b600082825260208201905092915050565b600082825260208201905092915050565b600082825260208201905092915050565b6000612cfd82612dc4565b9150612d0883612dc4565b9250827fffffffffffffffffffffffffffffffffffffffffffffffffffffffffffffffff03821115612d3d57612d3c612ebc565b5b828201905092915050565b6000612d5382612da4565b9050919050565b6000612d6582612da4565b9050919050565b60008115159050919050565b60007fffffffff0000000000000000000000000000000000000000000000000000000082169050919050565b600073ffffffffffffffffffffffffffffffffffffffff82169050919050565b6000819050919050565b82818337600083830152505050565b60005b83811015612dfb578082015181840152602081019050612de0565b83811115612e0a576000848401525b50505050565b60006002820490506001821680612e2857607f821691505b60208210811415612e3c57612e3b612eeb565b5b50919050565b612e4b82612f6b565b810181811067ffffffffffffffff82111715612e6a57612e69612f1a565b5b80604052505050565b6000612e7e82612dc4565b91507fffffffffffffffffffffffffffffffffffffffffffffffffffffffffffffffff821415612eb157612eb0612ebc565b5b600182019050919050565b7f4e487b7100000000000000000000000000000000000000000000000000000000600052601160045260246000fd5b7f4e487b7100000000000000000000000000000000000000000000000000000000600052602260045260246000fd5b7f4e487b7100000000000000000000000000000000000000000000000000000000600052604160045260246000fd5b600060033d1115612f685760046000803e612f65600051612f7c565b90505b90565b6000601f19601f8301169050919050565b60008160e01c9050919050565b7f455243313135353a207472616e7366657220746f206e6f6e204552433131353560008201527f526563656976657220696d706c656d656e746572000000000000000000000000602082015250565b7f455243313135353a204552433131353552656365697665722072656a6563746560008201527f6420746f6b656e73000000000000000000000000000000000000000000000000602082015250565b7f455243313135353a2062616c616e636520717565727920666f7220746865207a60008201527f65726f2061646472657373000000000000000000000000000000000000000000602082015250565b7f4f776e61626c653a206e6577206f776e657220697320746865207a65726f206160008201527f6464726573730000000000000000000000000000000000000000000000000000602082015250565b7f455243313135353a2063616c6c6572206973206e6f74206f776e6572206e6f7260008201527f20617070726f7665640000000000000000000000000000000000000000000000602082015250565b7f455243313135353a207472616e7366657220746f20746865207a65726f20616460008201527f6472657373000000000000000000000000000000000000000000000000000000602082015250565b7f455243313135353a207472616e736665722063616c6c6572206973206e6f742060008201527f6f776e6572206e6f7220617070726f7665640000000000000000000000000000602082015250565b7f455243313135353a20696e73756666696369656e742062616c616e636520666f60008201527f72207472616e7366657200000000000000000000000000000000000000000000602082015250565b7f4f776e61626c653a2063616c6c6572206973206e6f7420746865206f776e6572600082015250565b7f4d696e696d756d20646f6e6174696f6e206973206e6f74206d65742e00000000600082015250565b7f455243313135353a2073657474696e6720617070726f76616c2073746174757360008201527f20666f722073656c660000000000000000000000000000000000000000000000602082015250565b7f455243313135353a206163636f756e747320616e6420696473206c656e67746860008201527f206d69736d617463680000000000000000000000000000000000000000000000602082015250565b7f455243313135353a2069647320616e6420616d6f756e7473206c656e6774682060008201527f6d69736d61746368000000000000000000000000000000000000000000000000602082015250565b7f455243313135353a206d696e7420746f20746865207a65726f2061646472657360008201527f7300000000000000000000000000000000000000000000000000000000000000602082015250565b600060443d101561339f57613422565b6133a7612bbd565b60043d036004823e80513d602482011167ffffffffffffffff821117156133cf575050613422565b808201805167ffffffffffffffff8111156133ed5750505050613422565b80602083010160043d03850181111561340a575050505050613422565b61341982602001850186612e42565b82955050505050505b90565b61342e81612d48565b811461343957600080fd5b50565b61344581612d5a565b811461345057600080fd5b50565b61345c81612d6c565b811461346757600080fd5b50565b61347381612d78565b811461347e57600080fd5b50565b61348a81612dc4565b811461349557600080fd5b5056fea2646970667358221220db55bac2560c5a6ef487198692a07609b2577dc3ec5f727f6c41f0ed9e58d9c264736f6c63430008010033",
  "linkReferences": {},
  "deployedLinkReferences": {}
}