{
  "_format": "hh-sol-artifact-1",
  "contractName": "UkraineArtCoNFT",
  "sourceName": "contracts/NFTGiveaway.sol",
  "abi": [
    {
      "inputs": [],
      "stateMutability": "nonpayable",
      "type": "constructor"
    },
    {
      "anonymous": false,
      "inputs": [
        {
          "indexed": true,
          "internalType": "address",
          "name": "account",
          "type": "address"
        },
        {
          "indexed": true,
          "internalType": "address",
          "name": "operator",
          "type": "address"
        },
        {
          "indexed": false,
          "internalType": "bool",
          "name": "approved",
          "type": "bool"
        }
      ],
      "name": "ApprovalForAll",
      "type": "event"
    },
    {
      "anonymous": false,
      "inputs": [
        {
          "indexed": true,
          "internalType": "uint256",
          "name": "tokenId",
          "type": "uint256"
        },
        {
          "indexed": false,
          "internalType": "address",
          "name": "owner",
          "type": "address"
        }
      ],
      "name": "MarketItemSold",
      "type": "event"
    },
    {
      "anonymous": false,
      "inputs": [
        {
          "indexed": true,
          "internalType": "address",
          "name": "previousOwner",
          "type": "address"
        },
        {
          "indexed": true,
          "internalType": "address",
          "name": "newOwner",
          "type": "address"
        }
      ],
      "name": "OwnershipTransferred",
      "type": "event"
    },
    {
      "anonymous": false,
      "inputs": [
        {
          "indexed": true,
          "internalType": "address",
          "name": "operator",
          "type": "address"
        },
        {
          "indexed": true,
          "internalType": "address",
          "name": "from",
          "type": "address"
        },
        {
          "indexed": true,
          "internalType": "address",
          "name": "to",
          "type": "address"
        },
        {
          "indexed": false,
          "internalType": "uint256[]",
          "name": "ids",
          "type": "uint256[]"
        },
        {
          "indexed": false,
          "internalType": "uint256[]",
          "name": "values",
          "type": "uint256[]"
        }
      ],
      "name": "TransferBatch",
      "type": "event"
    },
    {
      "anonymous": false,
      "inputs": [
        {
          "indexed": true,
          "internalType": "address",
          "name": "operator",
          "type": "address"
        },
        {
          "indexed": true,
          "internalType": "address",
          "name": "from",
          "type": "address"
        },
        {
          "indexed": true,
          "internalType": "address",
          "name": "to",
          "type": "address"
        },
        {
          "indexed": false,
          "internalType": "uint256",
          "name": "id",
          "type": "uint256"
        },
        {
          "indexed": false,
          "internalType": "uint256",
          "name": "value",
          "type": "uint256"
        }
      ],
      "name": "TransferSingle",
      "type": "event"
    },
    {
      "anonymous": false,
      "inputs": [
        {
          "indexed": false,
          "internalType": "string",
          "name": "value",
          "type": "string"
        },
        {
          "indexed": true,
          "internalType": "uint256",
          "name": "id",
          "type": "uint256"
        }
      ],
      "name": "URI",
      "type": "event"
    },
    {
      "inputs": [
        {
          "internalType": "address",
          "name": "account",
          "type": "address"
        },
        {
          "internalType": "uint256",
          "name": "id",
          "type": "uint256"
        }
      ],
      "name": "balanceOf",
      "outputs": [
        {
          "internalType": "uint256",
          "name": "",
          "type": "uint256"
        }
      ],
      "stateMutability": "view",
      "type": "function"
    },
    {
      "inputs": [
        {
          "internalType": "address[]",
          "name": "accounts",
          "type": "address[]"
        },
        {
          "internalType": "uint256[]",
          "name": "ids",
          "type": "uint256[]"
        }
      ],
      "name": "balanceOfBatch",
      "outputs": [
        {
          "internalType": "uint256[]",
          "name": "",
          "type": "uint256[]"
        }
      ],
      "stateMutability": "view",
      "type": "function"
    },
    {
      "inputs": [],
      "name": "charityDestinationWallet",
      "outputs": [
        {
          "internalType": "address payable",
          "name": "",
          "type": "address"
        }
      ],
      "stateMutability": "view",
      "type": "function"
    },
    {
      "inputs": [
        {
          "internalType": "address",
          "name": "account",
          "type": "address"
        },
        {
          "internalType": "address",
          "name": "operator",
          "type": "address"
        }
      ],
      "name": "isApprovedForAll",
      "outputs": [
        {
          "internalType": "bool",
          "name": "",
          "type": "bool"
        }
      ],
      "stateMutability": "view",
      "type": "function"
    },
    {
      "inputs": [
        {
          "internalType": "uint256",
          "name": "",
          "type": "uint256"
        }
      ],
      "name": "marketItems",
      "outputs": [
        {
          "internalType": "uint256",
          "name": "",
          "type": "uint256"
        }
      ],
      "stateMutability": "view",
      "type": "function"
    },
    {
      "inputs": [
        {
          "internalType": "string",
          "name": "tokenUri",
          "type": "string"
        }
      ],
      "name": "mint",
      "outputs": [
        {
          "internalType": "uint256",
          "name": "",
          "type": "uint256"
        }
      ],
      "stateMutability": "payable",
      "type": "function"
    },
    {
      "inputs": [],
      "name": "owner",
      "outputs": [
        {
          "internalType": "address",
          "name": "",
          "type": "address"
        }
      ],
      "stateMutability": "view",
      "type": "function"
    },
    {
      "inputs": [],
      "name": "renounceOwnership",
      "outputs": [],
      "stateMutability": "nonpayable",
      "type": "function"
    },
    {
      "inputs": [
        {
          "internalType": "address",
          "name": "from",
          "type": "address"
        },
        {
          "internalType": "address",
          "name": "to",
          "type": "address"
        },
        {
          "internalType": "uint256[]",
          "name": "ids",
          "type": "uint256[]"
        },
        {
          "internalType": "uint256[]",
          "name": "amounts",
          "type": "uint256[]"
        },
        {
          "internalType": "bytes",
          "name": "data",
          "type": "bytes"
        }
      ],
      "name": "safeBatchTransferFrom",
      "outputs": [],
      "stateMutability": "nonpayable",
      "type": "function"
    },
    {
      "inputs": [
        {
          "internalType": "address",
          "name": "from",
          "type": "address"
        },
        {
          "internalType": "address",
          "name": "to",
          "type": "address"
        },
        {
          "internalType": "uint256",
          "name": "id",
          "type": "uint256"
        },
        {
          "internalType": "uint256",
          "name": "amount",
          "type": "uint256"
        },
        {
          "internalType": "bytes",
          "name": "data",
          "type": "bytes"
        }
      ],
      "name": "safeTransferFrom",
      "outputs": [],
      "stateMutability": "nonpayable",
      "type": "function"
    },
    {
      "inputs": [
        {
          "internalType": "address",
          "name": "operator",
          "type": "address"
        },
        {
          "internalType": "bool",
          "name": "approved",
          "type": "bool"
        }
      ],
      "name": "setApprovalForAll",
      "outputs": [],
      "stateMutability": "nonpayable",
      "type": "function"
    },
    {
      "inputs": [
        {
          "internalType": "string",
          "name": "newUri",
          "type": "string"
        }
      ],
      "name": "setURI",
      "outputs": [],
      "stateMutability": "nonpayable",
      "type": "function"
    },
    {
      "inputs": [
        {
          "internalType": "bytes4",
          "name": "interfaceId",
          "type": "bytes4"
        }
      ],
      "name": "supportsInterface",
      "outputs": [
        {
          "internalType": "bool",
          "name": "",
          "type": "bool"
        }
      ],
      "stateMutability": "view",
      "type": "function"
    },
    {
      "inputs": [
        {
          "internalType": "address",
          "name": "newOwner",
          "type": "address"
        }
      ],
      "name": "transferOwnership",
      "outputs": [],
      "stateMutability": "nonpayable",
      "type": "function"
    },
    {
      "inputs": [
        {
          "internalType": "uint256",
          "name": "",
          "type": "uint256"
        }
      ],
      "name": "uri",
      "outputs": [
        {
          "internalType": "string",
          "name": "",
          "type": "string"
        }
      ],
      "stateMutability": "view",
      "type": "function"
    }
  ],
  "bytecode": "0x60806040523480156200001157600080fd5b50604051806020016040528060008152506200003381620000af60201b60201c565b506200005462000048620000cb60201b60201c565b620000d360201b60201c565b73ab8483f64d9c6d1ecf9b849ae677dd3315835cb2600560006101000a81548173ffffffffffffffffffffffffffffffffffffffff021916908373ffffffffffffffffffffffffffffffffffffffff160217905550620002ae565b8060029080519060200190620000c792919062000199565b5050565b600033905090565b6000600360009054906101000a900473ffffffffffffffffffffffffffffffffffffffff16905081600360006101000a81548173ffffffffffffffffffffffffffffffffffffffff021916908373ffffffffffffffffffffffffffffffffffffffff1602179055508173ffffffffffffffffffffffffffffffffffffffff168173ffffffffffffffffffffffffffffffffffffffff167f8be0079c531659141344cd1fd0a4f28419497f9722a3daafe3b4186f6b6457e060405160405180910390a35050565b828054620001a79062000249565b90600052602060002090601f016020900481019282620001cb576000855562000217565b82601f10620001e657805160ff191683800117855562000217565b8280016001018555821562000217579182015b8281111562000216578251825591602001919060010190620001f9565b5b5090506200022691906200022a565b5090565b5b80821115620002455760008160009055506001016200022b565b5090565b600060028204905060018216806200026257607f821691505b602082108114156200027957620002786200027f565b5b50919050565b7f4e487b7100000000000000000000000000000000000000000000000000000000600052602260045260246000fd5b61329380620002be6000396000f3fe6080604052600436106100e75760003560e01c8063715018a61161008a578063dee442b111610059578063dee442b11461030a578063e985e9c514610335578063f242432a14610372578063f2fde38b1461039b576100e7565b8063715018a61461026f5780638da5cb5b14610286578063a22cb465146102b1578063d85d3d27146102da576100e7565b80630e89341c116100c65780630e89341c1461018f5780632eb2c2d6146101cc5780634e1273f4146101f557806351f28e1414610232576100e7565b8062fdd58e146100ec57806301ffc9a71461012957806302fe530514610166575b600080fd5b3480156100f857600080fd5b50610113600480360381019061010e919061216b565b6103c4565b604051610120919061293a565b60405180910390f35b34801561013557600080fd5b50610150600480360381019061014b9190612213565b61048d565b60405161015d919061273d565b60405180910390f35b34801561017257600080fd5b5061018d60048036038101906101889190612265565b61056f565b005b34801561019b57600080fd5b506101b660048036038101906101b191906122a6565b6105f7565b6040516101c39190612758565b60405180910390f35b3480156101d857600080fd5b506101f360048036038101906101ee9190611fe1565b61068b565b005b34801561020157600080fd5b5061021c600480360381019061021791906121a7565b61072c565b60405161022991906126e4565b60405180910390f35b34801561023e57600080fd5b50610259600480360381019061025491906122a6565b6108dd565b604051610266919061293a565b60405180910390f35b34801561027b57600080fd5b506102846108f5565b005b34801561029257600080fd5b5061029b61097d565b6040516102a891906125ec565b60405180910390f35b3480156102bd57600080fd5b506102d860048036038101906102d3919061212f565b6109a7565b005b6102f460048036038101906102ef9190612265565b6109bd565b604051610301919061293a565b60405180910390f35b34801561031657600080fd5b5061031f610b07565b60405161032c9190612607565b60405180910390f35b34801561034157600080fd5b5061035c60048036038101906103579190611fa5565b610b2d565b604051610369919061273d565b60405180910390f35b34801561037e57600080fd5b50610399600480360381019061039491906120a0565b610bc1565b005b3480156103a757600080fd5b506103c260048036038101906103bd9190611f7c565b610c62565b005b60008073ffffffffffffffffffffffffffffffffffffffff168373ffffffffffffffffffffffffffffffffffffffff161415610435576040517f08c379a000000000000000000000000000000000000000000000000000000000815260040161042c906127ba565b60405180910390fd5b60008083815260200190815260200160002060008473ffffffffffffffffffffffffffffffffffffffff1673ffffffffffffffffffffffffffffffffffffffff16815260200190815260200160002054905092915050565b60007fd9b67a26000000000000000000000000000000000000000000000000000000007bffffffffffffffffffffffffffffffffffffffffffffffffffffffff1916827bffffffffffffffffffffffffffffffffffffffffffffffffffffffff1916148061055857507f0e89341c000000000000000000000000000000000000000000000000000000007bffffffffffffffffffffffffffffffffffffffffffffffffffffffff1916827bffffffffffffffffffffffffffffffffffffffffffffffffffffffff1916145b80610568575061056782610d5a565b5b9050919050565b610577610dc4565b73ffffffffffffffffffffffffffffffffffffffff1661059561097d565b73ffffffffffffffffffffffffffffffffffffffff16146105eb576040517f08c379a00000000000000000000000000000000000000000000000000000000081526004016105e29061287a565b60405180910390fd5b6105f481610dcc565b50565b60606002805461060690612bec565b80601f016020809104026020016040519081016040528092919081815260200182805461063290612bec565b801561067f5780601f106106545761010080835404028352916020019161067f565b820191906000526020600020905b81548152906001019060200180831161066257829003601f168201915b50505050509050919050565b610693610dc4565b73ffffffffffffffffffffffffffffffffffffffff168573ffffffffffffffffffffffffffffffffffffffff1614806106d957506106d8856106d3610dc4565b610b2d565b5b610718576040517f08c379a000000000000000000000000000000000000000000000000000000000815260040161070f9061283a565b60405180910390fd5b6107258585858585610de6565b5050505050565b60608151835114610772576040517f08c379a0000000000000000000000000000000000000000000000000000000008152600401610769906128da565b60405180910390fd5b6000835167ffffffffffffffff8111156107b5577f4e487b7100000000000000000000000000000000000000000000000000000000600052604160045260246000fd5b6040519080825280602002602001820160405280156107e35781602001602082028036833780820191505090505b50905060005b84518110156108d25761087c85828151811061082e577f4e487b7100000000000000000000000000000000000000000000000000000000600052603260045260246000fd5b602002602001015185838151811061086f577f4e487b7100000000000000000000000000000000000000000000000000000000600052603260045260246000fd5b60200260200101516103c4565b8282815181106108b5577f4e487b7100000000000000000000000000000000000000000000000000000000600052603260045260246000fd5b602002602001018181525050806108cb90612c4f565b90506107e9565b508091505092915050565b60066020528060005260406000206000915090505481565b6108fd610dc4565b73ffffffffffffffffffffffffffffffffffffffff1661091b61097d565b73ffffffffffffffffffffffffffffffffffffffff1614610971576040517f08c379a00000000000000000000000000000000000000000000000000000000081526004016109689061287a565b60405180910390fd5b61097b6000611146565b565b6000600360009054906101000a900473ffffffffffffffffffffffffffffffffffffffff16905090565b6109b96109b2610dc4565b838361120c565b5050565b6000666a94d74f4300003411610a08576040517f08c379a00000000000000000000000000000000000000000000000000000000081526004016109ff9061289a565b60405180910390fd5b6000610a146004611379565b9050346006600083815260200190815260200160002081905550610a4a3382600160405180602001604052806000815250611387565b610a5383610dcc565b610a5d600461151d565b807f2073b2706c235effb1e3840575370a51749afd8181b4018f93bff955d50792cb33604051610a8d91906125ec565b60405180910390a2600560009054906101000a900473ffffffffffffffffffffffffffffffffffffffff1673ffffffffffffffffffffffffffffffffffffffff166108fc349081150290604051600060405180830381858888f19350505050158015610afd573d6000803e3d6000fd5b5080915050919050565b600560009054906101000a900473ffffffffffffffffffffffffffffffffffffffff1681565b6000600160008473ffffffffffffffffffffffffffffffffffffffff1673ffffffffffffffffffffffffffffffffffffffff16815260200190815260200160002060008373ffffffffffffffffffffffffffffffffffffffff1673ffffffffffffffffffffffffffffffffffffffff16815260200190815260200160002060009054906101000a900460ff16905092915050565b610bc9610dc4565b73ffffffffffffffffffffffffffffffffffffffff168573ffffffffffffffffffffffffffffffffffffffff161480610c0f5750610c0e85610c09610dc4565b610b2d565b5b610c4e576040517f08c379a0000000000000000000000000000000000000000000000000000000008152600401610c45906127fa565b60405180910390fd5b610c5b8585858585611533565b5050505050565b610c6a610dc4565b73ffffffffffffffffffffffffffffffffffffffff16610c8861097d565b73ffffffffffffffffffffffffffffffffffffffff1614610cde576040517f08c379a0000000000000000000000000000000000000000000000000000000008152600401610cd59061287a565b60405180910390fd5b600073ffffffffffffffffffffffffffffffffffffffff168173ffffffffffffffffffffffffffffffffffffffff161415610d4e576040517f08c379a0000000000000000000000000000000000000000000000000000000008152600401610d45906127da565b60405180910390fd5b610d5781611146565b50565b60007f01ffc9a7000000000000000000000000000000000000000000000000000000007bffffffffffffffffffffffffffffffffffffffffffffffffffffffff1916827bffffffffffffffffffffffffffffffffffffffffffffffffffffffff1916149050919050565b600033905090565b8060029080519060200190610de2929190611c74565b5050565b8151835114610e2a576040517f08c379a0000000000000000000000000000000000000000000000000000000008152600401610e21906128fa565b60405180910390fd5b600073ffffffffffffffffffffffffffffffffffffffff168473ffffffffffffffffffffffffffffffffffffffff161415610e9a576040517f08c379a0000000000000000000000000000000000000000000000000000000008152600401610e919061281a565b60405180910390fd5b6000610ea4610dc4565b9050610eb48187878787876117b5565b60005b84518110156110b1576000858281518110610efb577f4e487b7100000000000000000000000000000000000000000000000000000000600052603260045260246000fd5b602002602001015190506000858381518110610f40577f4e487b7100000000000000000000000000000000000000000000000000000000600052603260045260246000fd5b60200260200101519050600080600084815260200190815260200160002060008b73ffffffffffffffffffffffffffffffffffffffff1673ffffffffffffffffffffffffffffffffffffffff16815260200190815260200160002054905081811015610fe1576040517f08c379a0000000000000000000000000000000000000000000000000000000008152600401610fd89061285a565b60405180910390fd5b81810360008085815260200190815260200160002060008c73ffffffffffffffffffffffffffffffffffffffff1673ffffffffffffffffffffffffffffffffffffffff168152602001908152602001600020819055508160008085815260200190815260200160002060008b73ffffffffffffffffffffffffffffffffffffffff1673ffffffffffffffffffffffffffffffffffffffff16815260200190815260200160002060008282546110969190612ace565b92505081905550505050806110aa90612c4f565b9050610eb7565b508473ffffffffffffffffffffffffffffffffffffffff168673ffffffffffffffffffffffffffffffffffffffff168273ffffffffffffffffffffffffffffffffffffffff167f4a39dc06d4c0dbc64b70af90fd698a233a518aa5d07e595d983b8c0526c8f7fb8787604051611128929190612706565b60405180910390a461113e8187878787876117bd565b505050505050565b6000600360009054906101000a900473ffffffffffffffffffffffffffffffffffffffff16905081600360006101000a81548173ffffffffffffffffffffffffffffffffffffffff021916908373ffffffffffffffffffffffffffffffffffffffff1602179055508173ffffffffffffffffffffffffffffffffffffffff168173ffffffffffffffffffffffffffffffffffffffff167f8be0079c531659141344cd1fd0a4f28419497f9722a3daafe3b4186f6b6457e060405160405180910390a35050565b8173ffffffffffffffffffffffffffffffffffffffff168373ffffffffffffffffffffffffffffffffffffffff16141561127b576040517f08c379a0000000000000000000000000000000000000000000000000000000008152600401611272906128ba565b60405180910390fd5b80600160008573ffffffffffffffffffffffffffffffffffffffff1673ffffffffffffffffffffffffffffffffffffffff16815260200190815260200160002060008473ffffffffffffffffffffffffffffffffffffffff1673ffffffffffffffffffffffffffffffffffffffff16815260200190815260200160002060006101000a81548160ff0219169083151502179055508173ffffffffffffffffffffffffffffffffffffffff168373ffffffffffffffffffffffffffffffffffffffff167f17307eab39ab6107e8899845ad3d59bd9653f200f220920489ca2b5937696c318360405161136c919061273d565b60405180910390a3505050565b600081600001549050919050565b600073ffffffffffffffffffffffffffffffffffffffff168473ffffffffffffffffffffffffffffffffffffffff1614156113f7576040517f08c379a00000000000000000000000000000000000000000000000000000000081526004016113ee9061291a565b60405180910390fd5b6000611401610dc4565b905061142281600087611413886119a4565b61141c886119a4565b876117b5565b8260008086815260200190815260200160002060008773ffffffffffffffffffffffffffffffffffffffff1673ffffffffffffffffffffffffffffffffffffffff16815260200190815260200160002060008282546114819190612ace565b925050819055508473ffffffffffffffffffffffffffffffffffffffff16600073ffffffffffffffffffffffffffffffffffffffff168273ffffffffffffffffffffffffffffffffffffffff167fc3d58168c5ae7397731d063d5bbf3d657854427343f4c083240f7aacaa2d0f6287876040516114ff929190612955565b60405180910390a461151681600087878787611a6a565b5050505050565b6001816000016000828254019250508190555050565b600073ffffffffffffffffffffffffffffffffffffffff168473ffffffffffffffffffffffffffffffffffffffff1614156115a3576040517f08c379a000000000000000000000000000000000000000000000000000000000815260040161159a9061281a565b60405180910390fd5b60006115ad610dc4565b90506115cd8187876115be886119a4565b6115c7886119a4565b876117b5565b600080600086815260200190815260200160002060008873ffffffffffffffffffffffffffffffffffffffff1673ffffffffffffffffffffffffffffffffffffffff16815260200190815260200160002054905083811015611664576040517f08c379a000000000000000000000000000000000000000000000000000000000815260040161165b9061285a565b60405180910390fd5b83810360008087815260200190815260200160002060008973ffffffffffffffffffffffffffffffffffffffff1673ffffffffffffffffffffffffffffffffffffffff168152602001908152602001600020819055508360008087815260200190815260200160002060008873ffffffffffffffffffffffffffffffffffffffff1673ffffffffffffffffffffffffffffffffffffffff16815260200190815260200160002060008282546117199190612ace565b925050819055508573ffffffffffffffffffffffffffffffffffffffff168773ffffffffffffffffffffffffffffffffffffffff168373ffffffffffffffffffffffffffffffffffffffff167fc3d58168c5ae7397731d063d5bbf3d657854427343f4c083240f7aacaa2d0f628888604051611796929190612955565b60405180910390a46117ac828888888888611a6a565b50505050505050565b505050505050565b6117dc8473ffffffffffffffffffffffffffffffffffffffff16611c51565b1561199c578373ffffffffffffffffffffffffffffffffffffffff1663bc197c8187878686866040518663ffffffff1660e01b8152600401611822959493929190612622565b602060405180830381600087803b15801561183c57600080fd5b505af192505050801561186d57506040513d601f19601f8201168201806040525081019061186a919061223c565b60015b61191357611879612d25565b806308c379a014156118d6575061188e61316b565b8061189957506118d8565b806040517f08c379a00000000000000000000000000000000000000000000000000000000081526004016118cd9190612758565b60405180910390fd5b505b6040517f08c379a000000000000000000000000000000000000000000000000000000000815260040161190a9061277a565b60405180910390fd5b63bc197c8160e01b7bffffffffffffffffffffffffffffffffffffffffffffffffffffffff1916817bffffffffffffffffffffffffffffffffffffffffffffffffffffffff19161461199a576040517f08c379a00000000000000000000000000000000000000000000000000000000081526004016119919061279a565b60405180910390fd5b505b505050505050565b60606000600167ffffffffffffffff8111156119e9577f4e487b7100000000000000000000000000000000000000000000000000000000600052604160045260246000fd5b604051908082528060200260200182016040528015611a175781602001602082028036833780820191505090505b5090508281600081518110611a55577f4e487b7100000000000000000000000000000000000000000000000000000000600052603260045260246000fd5b60200260200101818152505080915050919050565b611a898473ffffffffffffffffffffffffffffffffffffffff16611c51565b15611c49578373ffffffffffffffffffffffffffffffffffffffff1663f23a6e6187878686866040518663ffffffff1660e01b8152600401611acf95949392919061268a565b602060405180830381600087803b158015611ae957600080fd5b505af1925050508015611b1a57506040513d601f19601f82011682018060405250810190611b17919061223c565b60015b611bc057611b26612d25565b806308c379a01415611b835750611b3b61316b565b80611b465750611b85565b806040517f08c379a0000000000000000000000000000000000000000000000000000000008152600401611b7a9190612758565b60405180910390fd5b505b6040517f08c379a0000000000000000000000000000000000000000000000000000000008152600401611bb79061277a565b60405180910390fd5b63f23a6e6160e01b7bffffffffffffffffffffffffffffffffffffffffffffffffffffffff1916817bffffffffffffffffffffffffffffffffffffffffffffffffffffffff191614611c47576040517f08c379a0000000000000000000000000000000000000000000000000000000008152600401611c3e9061279a565b60405180910390fd5b505b505050505050565b6000808273ffffffffffffffffffffffffffffffffffffffff163b119050919050565b828054611c8090612bec565b90600052602060002090601f016020900481019282611ca25760008555611ce9565b82601f10611cbb57805160ff1916838001178555611ce9565b82800160010185558215611ce9579182015b82811115611ce8578251825591602001919060010190611ccd565b5b509050611cf69190611cfa565b5090565b5b80821115611d13576000816000905550600101611cfb565b5090565b6000611d2a611d25846129a3565b61297e565b90508083825260208201905082856020860282011115611d4957600080fd5b60005b85811015611d795781611d5f8882611e6b565b845260208401935060208301925050600181019050611d4c565b5050509392505050565b6000611d96611d91846129cf565b61297e565b90508083825260208201905082856020860282011115611db557600080fd5b60005b85811015611de55781611dcb8882611f67565b845260208401935060208301925050600181019050611db8565b5050509392505050565b6000611e02611dfd846129fb565b61297e565b905082815260208101848484011115611e1a57600080fd5b611e25848285612baa565b509392505050565b6000611e40611e3b84612a2c565b61297e565b905082815260208101848484011115611e5857600080fd5b611e63848285612baa565b509392505050565b600081359050611e7a81613201565b92915050565b600082601f830112611e9157600080fd5b8135611ea1848260208601611d17565b91505092915050565b600082601f830112611ebb57600080fd5b8135611ecb848260208601611d83565b91505092915050565b600081359050611ee381613218565b92915050565b600081359050611ef88161322f565b92915050565b600081519050611f0d8161322f565b92915050565b600082601f830112611f2457600080fd5b8135611f34848260208601611def565b91505092915050565b600082601f830112611f4e57600080fd5b8135611f5e848260208601611e2d565b91505092915050565b600081359050611f7681613246565b92915050565b600060208284031215611f8e57600080fd5b6000611f9c84828501611e6b565b91505092915050565b60008060408385031215611fb857600080fd5b6000611fc685828601611e6b565b9250506020611fd785828601611e6b565b9150509250929050565b600080600080600060a08688031215611ff957600080fd5b600061200788828901611e6b565b955050602061201888828901611e6b565b945050604086013567ffffffffffffffff81111561203557600080fd5b61204188828901611eaa565b935050606086013567ffffffffffffffff81111561205e57600080fd5b61206a88828901611eaa565b925050608086013567ffffffffffffffff81111561208757600080fd5b61209388828901611f13565b9150509295509295909350565b600080600080600060a086880312156120b857600080fd5b60006120c688828901611e6b565b95505060206120d788828901611e6b565b94505060406120e888828901611f67565b93505060606120f988828901611f67565b925050608086013567ffffffffffffffff81111561211657600080fd5b61212288828901611f13565b9150509295509295909350565b6000806040838503121561214257600080fd5b600061215085828601611e6b565b925050602061216185828601611ed4565b9150509250929050565b6000806040838503121561217e57600080fd5b600061218c85828601611e6b565b925050602061219d85828601611f67565b9150509250929050565b600080604083850312156121ba57600080fd5b600083013567ffffffffffffffff8111156121d457600080fd5b6121e085828601611e80565b925050602083013567ffffffffffffffff8111156121fd57600080fd5b61220985828601611eaa565b9150509250929050565b60006020828403121561222557600080fd5b600061223384828501611ee9565b91505092915050565b60006020828403121561224e57600080fd5b600061225c84828501611efe565b91505092915050565b60006020828403121561227757600080fd5b600082013567ffffffffffffffff81111561229157600080fd5b61229d84828501611f3d565b91505092915050565b6000602082840312156122b857600080fd5b60006122c684828501611f67565b91505092915050565b60006122db83836125ce565b60208301905092915050565b6122f081612b36565b82525050565b6122ff81612b24565b82525050565b600061231082612a6d565b61231a8185612a9b565b935061232583612a5d565b8060005b8381101561235657815161233d88826122cf565b975061234883612a8e565b925050600181019050612329565b5085935050505092915050565b61236c81612b48565b82525050565b600061237d82612a78565b6123878185612aac565b9350612397818560208601612bb9565b6123a081612d47565b840191505092915050565b60006123b682612a83565b6123c08185612abd565b93506123d0818560208601612bb9565b6123d981612d47565b840191505092915050565b60006123f1603483612abd565b91506123fc82612d65565b604082019050919050565b6000612414602883612abd565b915061241f82612db4565b604082019050919050565b6000612437602b83612abd565b915061244282612e03565b604082019050919050565b600061245a602683612abd565b915061246582612e52565b604082019050919050565b600061247d602983612abd565b915061248882612ea1565b604082019050919050565b60006124a0602583612abd565b91506124ab82612ef0565b604082019050919050565b60006124c3603283612abd565b91506124ce82612f3f565b604082019050919050565b60006124e6602a83612abd565b91506124f182612f8e565b604082019050919050565b6000612509602083612abd565b915061251482612fdd565b602082019050919050565b600061252c601c83612abd565b915061253782613006565b602082019050919050565b600061254f602983612abd565b915061255a8261302f565b604082019050919050565b6000612572602983612abd565b915061257d8261307e565b604082019050919050565b6000612595602883612abd565b91506125a0826130cd565b604082019050919050565b60006125b8602183612abd565b91506125c38261311c565b604082019050919050565b6125d781612ba0565b82525050565b6125e681612ba0565b82525050565b600060208201905061260160008301846122f6565b92915050565b600060208201905061261c60008301846122e7565b92915050565b600060a08201905061263760008301886122f6565b61264460208301876122f6565b81810360408301526126568186612305565b9050818103606083015261266a8185612305565b9050818103608083015261267e8184612372565b90509695505050505050565b600060a08201905061269f60008301886122f6565b6126ac60208301876122f6565b6126b960408301866125dd565b6126c660608301856125dd565b81810360808301526126d88184612372565b90509695505050505050565b600060208201905081810360008301526126fe8184612305565b905092915050565b600060408201905081810360008301526127208185612305565b905081810360208301526127348184612305565b90509392505050565b60006020820190506127526000830184612363565b92915050565b6000602082019050818103600083015261277281846123ab565b905092915050565b60006020820190508181036000830152612793816123e4565b9050919050565b600060208201905081810360008301526127b381612407565b9050919050565b600060208201905081810360008301526127d38161242a565b9050919050565b600060208201905081810360008301526127f38161244d565b9050919050565b6000602082019050818103600083015261281381612470565b9050919050565b6000602082019050818103600083015261283381612493565b9050919050565b60006020820190508181036000830152612853816124b6565b9050919050565b60006020820190508181036000830152612873816124d9565b9050919050565b60006020820190508181036000830152612893816124fc565b9050919050565b600060208201905081810360008301526128b38161251f565b9050919050565b600060208201905081810360008301526128d381612542565b9050919050565b600060208201905081810360008301526128f381612565565b9050919050565b6000602082019050818103600083015261291381612588565b9050919050565b60006020820190508181036000830152612933816125ab565b9050919050565b600060208201905061294f60008301846125dd565b92915050565b600060408201905061296a60008301856125dd565b61297760208301846125dd565b9392505050565b6000612988612999565b90506129948282612c1e565b919050565b6000604051905090565b600067ffffffffffffffff8211156129be576129bd612cf6565b5b602082029050602081019050919050565b600067ffffffffffffffff8211156129ea576129e9612cf6565b5b602082029050602081019050919050565b600067ffffffffffffffff821115612a1657612a15612cf6565b5b612a1f82612d47565b9050602081019050919050565b600067ffffffffffffffff821115612a4757612a46612cf6565b5b612a5082612d47565b9050602081019050919050565b6000819050602082019050919050565b600081519050919050565b600081519050919050565b600081519050919050565b6000602082019050919050565b600082825260208201905092915050565b600082825260208201905092915050565b600082825260208201905092915050565b6000612ad982612ba0565b9150612ae483612ba0565b9250827fffffffffffffffffffffffffffffffffffffffffffffffffffffffffffffffff03821115612b1957612b18612c98565b5b828201905092915050565b6000612b2f82612b80565b9050919050565b6000612b4182612b80565b9050919050565b60008115159050919050565b60007fffffffff0000000000000000000000000000000000000000000000000000000082169050919050565b600073ffffffffffffffffffffffffffffffffffffffff82169050919050565b6000819050919050565b82818337600083830152505050565b60005b83811015612bd7578082015181840152602081019050612bbc565b83811115612be6576000848401525b50505050565b60006002820490506001821680612c0457607f821691505b60208210811415612c1857612c17612cc7565b5b50919050565b612c2782612d47565b810181811067ffffffffffffffff82111715612c4657612c45612cf6565b5b80604052505050565b6000612c5a82612ba0565b91507fffffffffffffffffffffffffffffffffffffffffffffffffffffffffffffffff821415612c8d57612c8c612c98565b5b600182019050919050565b7f4e487b7100000000000000000000000000000000000000000000000000000000600052601160045260246000fd5b7f4e487b7100000000000000000000000000000000000000000000000000000000600052602260045260246000fd5b7f4e487b7100000000000000000000000000000000000000000000000000000000600052604160045260246000fd5b600060033d1115612d445760046000803e612d41600051612d58565b90505b90565b6000601f19601f8301169050919050565b60008160e01c9050919050565b7f455243313135353a207472616e7366657220746f206e6f6e204552433131353560008201527f526563656976657220696d706c656d656e746572000000000000000000000000602082015250565b7f455243313135353a204552433131353552656365697665722072656a6563746560008201527f6420746f6b656e73000000000000000000000000000000000000000000000000602082015250565b7f455243313135353a2062616c616e636520717565727920666f7220746865207a60008201527f65726f2061646472657373000000000000000000000000000000000000000000602082015250565b7f4f776e61626c653a206e6577206f776e657220697320746865207a65726f206160008201527f6464726573730000000000000000000000000000000000000000000000000000602082015250565b7f455243313135353a2063616c6c6572206973206e6f74206f776e6572206e6f7260008201527f20617070726f7665640000000000000000000000000000000000000000000000602082015250565b7f455243313135353a207472616e7366657220746f20746865207a65726f20616460008201527f6472657373000000000000000000000000000000000000000000000000000000602082015250565b7f455243313135353a207472616e736665722063616c6c6572206973206e6f742060008201527f6f776e6572206e6f7220617070726f7665640000000000000000000000000000602082015250565b7f455243313135353a20696e73756666696369656e742062616c616e636520666f60008201527f72207472616e7366657200000000000000000000000000000000000000000000602082015250565b7f4f776e61626c653a2063616c6c6572206973206e6f7420746865206f776e6572600082015250565b7f4d696e696d756d20302e303320455448206973206e6f74206d65742e00000000600082015250565b7f455243313135353a2073657474696e6720617070726f76616c2073746174757360008201527f20666f722073656c660000000000000000000000000000000000000000000000602082015250565b7f455243313135353a206163636f756e747320616e6420696473206c656e67746860008201527f206d69736d617463680000000000000000000000000000000000000000000000602082015250565b7f455243313135353a2069647320616e6420616d6f756e7473206c656e6774682060008201527f6d69736d61746368000000000000000000000000000000000000000000000000602082015250565b7f455243313135353a206d696e7420746f20746865207a65726f2061646472657360008201527f7300000000000000000000000000000000000000000000000000000000000000602082015250565b600060443d101561317b576131fe565b613183612999565b60043d036004823e80513d602482011167ffffffffffffffff821117156131ab5750506131fe565b808201805167ffffffffffffffff8111156131c957505050506131fe565b80602083010160043d0385018111156131e65750505050506131fe565b6131f582602001850186612c1e565b82955050505050505b90565b61320a81612b24565b811461321557600080fd5b50565b61322181612b48565b811461322c57600080fd5b50565b61323881612b54565b811461324357600080fd5b50565b61324f81612ba0565b811461325a57600080fd5b5056fea2646970667358221220dbf04474b2ad3dc68a102427429839a9eb93df1e138e5f3ac703d592d602c5e964736f6c63430008010033",
  "linkReferences": {},
  "deployedLinkReferences": {}
}