{
  "_format": "hh-sol-artifact-1",
  "contractName": "SaveUkraineNFT",
  "sourceName": "contracts/NFTGiveaway.sol",
  "abi": [
    {
      "inputs": [],
      "stateMutability": "nonpayable",
      "type": "constructor"
    },
    {
      "anonymous": false,
      "inputs": [
        {
          "indexed": true,
          "internalType": "address",
          "name": "owner",
          "type": "address"
        },
        {
          "indexed": true,
          "internalType": "address",
          "name": "approved",
          "type": "address"
        },
        {
          "indexed": true,
          "internalType": "uint256",
          "name": "tokenId",
          "type": "uint256"
        }
      ],
      "name": "Approval",
      "type": "event"
    },
    {
      "anonymous": false,
      "inputs": [
        {
          "indexed": true,
          "internalType": "address",
          "name": "owner",
          "type": "address"
        },
        {
          "indexed": true,
          "internalType": "address",
          "name": "operator",
          "type": "address"
        },
        {
          "indexed": false,
          "internalType": "bool",
          "name": "approved",
          "type": "bool"
        }
      ],
      "name": "ApprovalForAll",
      "type": "event"
    },
    {
      "anonymous": false,
      "inputs": [
        {
          "indexed": true,
          "internalType": "uint256",
          "name": "tokenId",
          "type": "uint256"
        },
        {
          "indexed": false,
          "internalType": "address",
          "name": "owner",
          "type": "address"
        }
      ],
      "name": "MarketItemSold",
      "type": "event"
    },
    {
      "anonymous": false,
      "inputs": [
        {
          "indexed": true,
          "internalType": "address",
          "name": "previousOwner",
          "type": "address"
        },
        {
          "indexed": true,
          "internalType": "address",
          "name": "newOwner",
          "type": "address"
        }
      ],
      "name": "OwnershipTransferred",
      "type": "event"
    },
    {
      "anonymous": false,
      "inputs": [
        {
          "indexed": true,
          "internalType": "address",
          "name": "from",
          "type": "address"
        },
        {
          "indexed": true,
          "internalType": "address",
          "name": "to",
          "type": "address"
        },
        {
          "indexed": true,
          "internalType": "uint256",
          "name": "tokenId",
          "type": "uint256"
        }
      ],
      "name": "Transfer",
      "type": "event"
    },
    {
      "inputs": [
        {
          "internalType": "address",
          "name": "to",
          "type": "address"
        },
        {
          "internalType": "uint256",
          "name": "tokenId",
          "type": "uint256"
        }
      ],
      "name": "approve",
      "outputs": [],
      "stateMutability": "nonpayable",
      "type": "function"
    },
    {
      "inputs": [
        {
          "internalType": "address",
          "name": "owner",
          "type": "address"
        }
      ],
      "name": "balanceOf",
      "outputs": [
        {
          "internalType": "uint256",
          "name": "",
          "type": "uint256"
        }
      ],
      "stateMutability": "view",
      "type": "function"
    },
    {
      "inputs": [],
      "name": "calculateSoldRate",
      "outputs": [
        {
          "internalType": "uint256",
          "name": "",
          "type": "uint256"
        }
      ],
      "stateMutability": "pure",
      "type": "function"
    },
    {
      "inputs": [],
      "name": "copyOfOwner",
      "outputs": [
        {
          "internalType": "address",
          "name": "",
          "type": "address"
        }
      ],
      "stateMutability": "view",
      "type": "function"
    },
    {
      "inputs": [],
      "name": "firstBayer",
      "outputs": [
        {
          "internalType": "address",
          "name": "",
          "type": "address"
        }
      ],
      "stateMutability": "view",
      "type": "function"
    },
    {
      "inputs": [
        {
          "internalType": "uint256",
          "name": "tokenId",
          "type": "uint256"
        }
      ],
      "name": "getApproved",
      "outputs": [
        {
          "internalType": "address",
          "name": "",
          "type": "address"
        }
      ],
      "stateMutability": "view",
      "type": "function"
    },
    {
      "inputs": [
        {
          "internalType": "address",
          "name": "owner",
          "type": "address"
        },
        {
          "internalType": "address",
          "name": "operator",
          "type": "address"
        }
      ],
      "name": "isApprovedForAll",
      "outputs": [
        {
          "internalType": "bool",
          "name": "",
          "type": "bool"
        }
      ],
      "stateMutability": "view",
      "type": "function"
    },
    {
      "inputs": [
        {
          "internalType": "string",
          "name": "tokenURI",
          "type": "string"
        }
      ],
      "name": "mintNFT",
      "outputs": [
        {
          "internalType": "uint256",
          "name": "",
          "type": "uint256"
        }
      ],
      "stateMutability": "payable",
      "type": "function"
    },
    {
      "inputs": [],
      "name": "name",
      "outputs": [
        {
          "internalType": "string",
          "name": "",
          "type": "string"
        }
      ],
      "stateMutability": "view",
      "type": "function"
    },
    {
      "inputs": [],
      "name": "owner",
      "outputs": [
        {
          "internalType": "address",
          "name": "",
          "type": "address"
        }
      ],
      "stateMutability": "view",
      "type": "function"
    },
    {
      "inputs": [
        {
          "internalType": "uint256",
          "name": "tokenId",
          "type": "uint256"
        }
      ],
      "name": "ownerOf",
      "outputs": [
        {
          "internalType": "address",
          "name": "",
          "type": "address"
        }
      ],
      "stateMutability": "view",
      "type": "function"
    },
    {
      "inputs": [],
      "name": "renounceOwnership",
      "outputs": [],
      "stateMutability": "nonpayable",
      "type": "function"
    },
    {
      "inputs": [
        {
          "internalType": "address",
          "name": "from",
          "type": "address"
        },
        {
          "internalType": "address",
          "name": "to",
          "type": "address"
        },
        {
          "internalType": "uint256",
          "name": "tokenId",
          "type": "uint256"
        }
      ],
      "name": "safeTransferFrom",
      "outputs": [],
      "stateMutability": "nonpayable",
      "type": "function"
    },
    {
      "inputs": [
        {
          "internalType": "address",
          "name": "from",
          "type": "address"
        },
        {
          "internalType": "address",
          "name": "to",
          "type": "address"
        },
        {
          "internalType": "uint256",
          "name": "tokenId",
          "type": "uint256"
        },
        {
          "internalType": "bytes",
          "name": "_data",
          "type": "bytes"
        }
      ],
      "name": "safeTransferFrom",
      "outputs": [],
      "stateMutability": "nonpayable",
      "type": "function"
    },
    {
      "inputs": [
        {
          "internalType": "address",
          "name": "operator",
          "type": "address"
        },
        {
          "internalType": "bool",
          "name": "approved",
          "type": "bool"
        }
      ],
      "name": "setApprovalForAll",
      "outputs": [],
      "stateMutability": "nonpayable",
      "type": "function"
    },
    {
      "inputs": [
        {
          "internalType": "bytes4",
          "name": "interfaceId",
          "type": "bytes4"
        }
      ],
      "name": "supportsInterface",
      "outputs": [
        {
          "internalType": "bool",
          "name": "",
          "type": "bool"
        }
      ],
      "stateMutability": "view",
      "type": "function"
    },
    {
      "inputs": [],
      "name": "symbol",
      "outputs": [
        {
          "internalType": "string",
          "name": "",
          "type": "string"
        }
      ],
      "stateMutability": "view",
      "type": "function"
    },
    {
      "inputs": [
        {
          "internalType": "uint256",
          "name": "tokenId",
          "type": "uint256"
        }
      ],
      "name": "tokenURI",
      "outputs": [
        {
          "internalType": "string",
          "name": "",
          "type": "string"
        }
      ],
      "stateMutability": "view",
      "type": "function"
    },
    {
      "inputs": [
        {
          "internalType": "address",
          "name": "from",
          "type": "address"
        },
        {
          "internalType": "address",
          "name": "to",
          "type": "address"
        },
        {
          "internalType": "uint256",
          "name": "tokenId",
          "type": "uint256"
        }
      ],
      "name": "transferFrom",
      "outputs": [],
      "stateMutability": "nonpayable",
      "type": "function"
    },
    {
      "inputs": [
        {
          "internalType": "address",
          "name": "newOwner",
          "type": "address"
        }
      ],
      "name": "transferOwnership",
      "outputs": [],
      "stateMutability": "nonpayable",
      "type": "function"
    }
  ],
  "bytecode": "0x60806040523480156200001157600080fd5b506040518060400160405280600e81526020017f53617665556b7261696e654e46540000000000000000000000000000000000008152506040518060400160405280600381526020017f4e46540000000000000000000000000000000000000000000000000000000000815250816000908051906020019062000096929190620001e7565b508060019080519060200190620000af929190620001e7565b505050620000d2620000c66200011960201b60201c565b6200012160201b60201c565b33600a60006101000a81548173ffffffffffffffffffffffffffffffffffffffff021916908373ffffffffffffffffffffffffffffffffffffffff160217905550620002fc565b600033905090565b6000600760009054906101000a900473ffffffffffffffffffffffffffffffffffffffff16905081600760006101000a81548173ffffffffffffffffffffffffffffffffffffffff021916908373ffffffffffffffffffffffffffffffffffffffff1602179055508173ffffffffffffffffffffffffffffffffffffffff168173ffffffffffffffffffffffffffffffffffffffff167f8be0079c531659141344cd1fd0a4f28419497f9722a3daafe3b4186f6b6457e060405160405180910390a35050565b828054620001f59062000297565b90600052602060002090601f01602090048101928262000219576000855562000265565b82601f106200023457805160ff191683800117855562000265565b8280016001018555821562000265579182015b828111156200026457825182559160200191906001019062000247565b5b50905062000274919062000278565b5090565b5b808211156200029357600081600090555060010162000279565b5090565b60006002820490506001821680620002b057607f821691505b60208210811415620002c757620002c6620002cd565b5b50919050565b7f4e487b7100000000000000000000000000000000000000000000000000000000600052602260045260246000fd5b61364e806200030c6000396000f3fe60806040526004361061011f5760003560e01c80638da5cb5b116100a0578063ca60234711610064578063ca602347146103e5578063dd0c63c814610410578063e985e9c51461043b578063f2fde38b14610478578063fb37e883146104a15761011f565b80638da5cb5b1461030057806395d89b411461032b578063a22cb46514610356578063b88d4fde1461037f578063c87b56dd146103a85761011f565b806342842e0e116100e757806342842e0e1461021b5780636352211e146102445780636fabdaf91461028157806370a08231146102ac578063715018a6146102e95761011f565b806301ffc9a71461012457806306fdde0314610161578063081812fc1461018c578063095ea7b3146101c957806323b872dd146101f2575b600080fd5b34801561013057600080fd5b5061014b6004803603810190610146919061235d565b6104d1565b60405161015891906128c5565b60405180910390f35b34801561016d57600080fd5b506101766105b3565b60405161018391906128e0565b60405180910390f35b34801561019857600080fd5b506101b360048036038101906101ae91906123f0565b610645565b6040516101c0919061285e565b60405180910390f35b3480156101d557600080fd5b506101f060048036038101906101eb9190612321565b6106ca565b005b3480156101fe57600080fd5b506102196004803603810190610214919061221b565b6107e2565b005b34801561022757600080fd5b50610242600480360381019061023d919061221b565b610842565b005b34801561025057600080fd5b5061026b600480360381019061026691906123f0565b610862565b604051610278919061285e565b60405180910390f35b34801561028d57600080fd5b50610296610914565b6040516102a39190612b62565b60405180910390f35b3480156102b857600080fd5b506102d360048036038101906102ce91906121b6565b610919565b6040516102e09190612b62565b60405180910390f35b3480156102f557600080fd5b506102fe6109d1565b005b34801561030c57600080fd5b50610315610a59565b604051610322919061285e565b60405180910390f35b34801561033757600080fd5b50610340610a83565b60405161034d91906128e0565b60405180910390f35b34801561036257600080fd5b5061037d600480360381019061037891906122e5565b610b15565b005b34801561038b57600080fd5b506103a660048036038101906103a1919061226a565b610b2b565b005b3480156103b457600080fd5b506103cf60048036038101906103ca91906123f0565b610b8d565b6040516103dc91906128e0565b60405180910390f35b3480156103f157600080fd5b506103fa610cdf565b604051610407919061285e565b60405180910390f35b34801561041c57600080fd5b50610425610d05565b604051610432919061285e565b60405180910390f35b34801561044757600080fd5b50610462600480360381019061045d91906121df565b610d2b565b60405161046f91906128c5565b60405180910390f35b34801561048457600080fd5b5061049f600480360381019061049a91906121b6565b610dbf565b005b6104bb60048036038101906104b691906123af565b610eb7565b6040516104c89190612b62565b60405180910390f35b60007f80ac58cd000000000000000000000000000000000000000000000000000000007bffffffffffffffffffffffffffffffffffffffffffffffffffffffff1916827bffffffffffffffffffffffffffffffffffffffffffffffffffffffff1916148061059c57507f5b5e139f000000000000000000000000000000000000000000000000000000007bffffffffffffffffffffffffffffffffffffffffffffffffffffffff1916827bffffffffffffffffffffffffffffffffffffffffffffffffffffffff1916145b806105ac57506105ab82611010565b5b9050919050565b6060600080546105c290612e12565b80601f01602080910402602001604051908101604052809291908181526020018280546105ee90612e12565b801561063b5780601f106106105761010080835404028352916020019161063b565b820191906000526020600020905b81548152906001019060200180831161061e57829003601f168201915b5050505050905090565b60006106508261107a565b61068f576040517f08c379a000000000000000000000000000000000000000000000000000000000815260040161068690612aa2565b60405180910390fd5b6004600083815260200190815260200160002060009054906101000a900473ffffffffffffffffffffffffffffffffffffffff169050919050565b60006106d582610862565b90508073ffffffffffffffffffffffffffffffffffffffff168373ffffffffffffffffffffffffffffffffffffffff161415610746576040517f08c379a000000000000000000000000000000000000000000000000000000000815260040161073d90612b22565b60405180910390fd5b8073ffffffffffffffffffffffffffffffffffffffff166107656110e6565b73ffffffffffffffffffffffffffffffffffffffff16148061079457506107938161078e6110e6565b610d2b565b5b6107d3576040517f08c379a00000000000000000000000000000000000000000000000000000000081526004016107ca906129e2565b60405180910390fd5b6107dd83836110ee565b505050565b6107f36107ed6110e6565b826111a7565b610832576040517f08c379a000000000000000000000000000000000000000000000000000000000815260040161082990612b42565b60405180910390fd5b61083d838383611285565b505050565b61085d83838360405180602001604052806000815250610b2b565b505050565b6000806002600084815260200190815260200160002060009054906101000a900473ffffffffffffffffffffffffffffffffffffffff169050600073ffffffffffffffffffffffffffffffffffffffff168173ffffffffffffffffffffffffffffffffffffffff16141561090b576040517f08c379a000000000000000000000000000000000000000000000000000000000815260040161090290612a22565b60405180910390fd5b80915050919050565b600090565b60008073ffffffffffffffffffffffffffffffffffffffff168273ffffffffffffffffffffffffffffffffffffffff16141561098a576040517f08c379a000000000000000000000000000000000000000000000000000000000815260040161098190612a02565b60405180910390fd5b600360008373ffffffffffffffffffffffffffffffffffffffff1673ffffffffffffffffffffffffffffffffffffffff168152602001908152602001600020549050919050565b6109d96110e6565b73ffffffffffffffffffffffffffffffffffffffff166109f7610a59565b73ffffffffffffffffffffffffffffffffffffffff1614610a4d576040517f08c379a0000000000000000000000000000000000000000000000000000000008152600401610a4490612ae2565b60405180910390fd5b610a5760006114ec565b565b6000600760009054906101000a900473ffffffffffffffffffffffffffffffffffffffff16905090565b606060018054610a9290612e12565b80601f0160208091040260200160405190810160405280929190818152602001828054610abe90612e12565b8015610b0b5780601f10610ae057610100808354040283529160200191610b0b565b820191906000526020600020905b815481529060010190602001808311610aee57829003601f168201915b5050505050905090565b610b27610b206110e6565b83836115b2565b5050565b610b3c610b366110e6565b836111a7565b610b7b576040517f08c379a0000000000000000000000000000000000000000000000000000000008152600401610b7290612b42565b60405180910390fd5b610b878484848461171f565b50505050565b6060610b988261107a565b610bd7576040517f08c379a0000000000000000000000000000000000000000000000000000000008152600401610bce90612a82565b60405180910390fd5b6000600660008481526020019081526020016000208054610bf790612e12565b80601f0160208091040260200160405190810160405280929190818152602001828054610c2390612e12565b8015610c705780601f10610c4557610100808354040283529160200191610c70565b820191906000526020600020905b815481529060010190602001808311610c5357829003601f168201915b505050505090506000610c8161177b565b9050600081511415610c97578192505050610cda565b600082511115610ccc578082604051602001610cb49291906127eb565b60405160208183030381529060405292505050610cda565b610cd584611792565b925050505b919050565b600a60009054906101000a900473ffffffffffffffffffffffffffffffffffffffff1681565b600960009054906101000a900473ffffffffffffffffffffffffffffffffffffffff1681565b6000600560008473ffffffffffffffffffffffffffffffffffffffff1673ffffffffffffffffffffffffffffffffffffffff16815260200190815260200160002060008373ffffffffffffffffffffffffffffffffffffffff1673ffffffffffffffffffffffffffffffffffffffff16815260200190815260200160002060009054906101000a900460ff16905092915050565b610dc76110e6565b73ffffffffffffffffffffffffffffffffffffffff16610de5610a59565b73ffffffffffffffffffffffffffffffffffffffff1614610e3b576040517f08c379a0000000000000000000000000000000000000000000000000000000008152600401610e3290612ae2565b60405180910390fd5b600073ffffffffffffffffffffffffffffffffffffffff168173ffffffffffffffffffffffffffffffffffffffff161415610eab576040517f08c379a0000000000000000000000000000000000000000000000000000000008152600401610ea290612922565b60405180910390fd5b610eb4816114ec565b50565b60006001341015610efd576040517f08c379a0000000000000000000000000000000000000000000000000000000008152600401610ef490612ac2565b60405180910390fd5b6000610f096008611839565b1415610f515733600960006101000a81548173ffffffffffffffffffffffffffffffffffffffff021916908373ffffffffffffffffffffffffffffffffffffffff1602179055505b6000610f7b83604051602001610f67919061280f565b604051602081830303815290604052611847565b9050600081604051602001610f90919061283c565b6040516020818303038152906040529050610fab6008611a05565b6000610fb76008611839565b9050610fc33382611a1b565b610fcd8183611bf5565b807f2073b2706c235effb1e3840575370a51749afd8181b4018f93bff955d50792cb33604051610ffd919061285e565b60405180910390a2809350505050919050565b60007f01ffc9a7000000000000000000000000000000000000000000000000000000007bffffffffffffffffffffffffffffffffffffffffffffffffffffffff1916827bffffffffffffffffffffffffffffffffffffffffffffffffffffffff1916149050919050565b60008073ffffffffffffffffffffffffffffffffffffffff166002600084815260200190815260200160002060009054906101000a900473ffffffffffffffffffffffffffffffffffffffff1673ffffffffffffffffffffffffffffffffffffffff1614159050919050565b600033905090565b816004600083815260200190815260200160002060006101000a81548173ffffffffffffffffffffffffffffffffffffffff021916908373ffffffffffffffffffffffffffffffffffffffff160217905550808273ffffffffffffffffffffffffffffffffffffffff1661116183610862565b73ffffffffffffffffffffffffffffffffffffffff167f8c5be1e5ebec7d5bd14f71427d1e84f3dd0314c0f7b2291e5b200ac8c7c3b92560405160405180910390a45050565b60006111b28261107a565b6111f1576040517f08c379a00000000000000000000000000000000000000000000000000000000081526004016111e8906129c2565b60405180910390fd5b60006111fc83610862565b90508073ffffffffffffffffffffffffffffffffffffffff168473ffffffffffffffffffffffffffffffffffffffff16148061126b57508373ffffffffffffffffffffffffffffffffffffffff1661125384610645565b73ffffffffffffffffffffffffffffffffffffffff16145b8061127c575061127b8185610d2b565b5b91505092915050565b8273ffffffffffffffffffffffffffffffffffffffff166112a582610862565b73ffffffffffffffffffffffffffffffffffffffff16146112fb576040517f08c379a00000000000000000000000000000000000000000000000000000000081526004016112f290612942565b60405180910390fd5b600073ffffffffffffffffffffffffffffffffffffffff168273ffffffffffffffffffffffffffffffffffffffff16141561136b576040517f08c379a000000000000000000000000000000000000000000000000000000000815260040161136290612982565b60405180910390fd5b611376838383611c69565b6113816000826110ee565b6001600360008573ffffffffffffffffffffffffffffffffffffffff1673ffffffffffffffffffffffffffffffffffffffff16815260200190815260200160002060008282546113d19190612d28565b925050819055506001600360008473ffffffffffffffffffffffffffffffffffffffff1673ffffffffffffffffffffffffffffffffffffffff16815260200190815260200160002060008282546114289190612c47565b92505081905550816002600083815260200190815260200160002060006101000a81548173ffffffffffffffffffffffffffffffffffffffff021916908373ffffffffffffffffffffffffffffffffffffffff160217905550808273ffffffffffffffffffffffffffffffffffffffff168473ffffffffffffffffffffffffffffffffffffffff167fddf252ad1be2c89b69c2b068fc378daa952ba7f163c4a11628f55a4df523b3ef60405160405180910390a46114e7838383611c6e565b505050565b6000600760009054906101000a900473ffffffffffffffffffffffffffffffffffffffff16905081600760006101000a81548173ffffffffffffffffffffffffffffffffffffffff021916908373ffffffffffffffffffffffffffffffffffffffff1602179055508173ffffffffffffffffffffffffffffffffffffffff168173ffffffffffffffffffffffffffffffffffffffff167f8be0079c531659141344cd1fd0a4f28419497f9722a3daafe3b4186f6b6457e060405160405180910390a35050565b8173ffffffffffffffffffffffffffffffffffffffff168373ffffffffffffffffffffffffffffffffffffffff161415611621576040517f08c379a0000000000000000000000000000000000000000000000000000000008152600401611618906129a2565b60405180910390fd5b80600560008573ffffffffffffffffffffffffffffffffffffffff1673ffffffffffffffffffffffffffffffffffffffff16815260200190815260200160002060008473ffffffffffffffffffffffffffffffffffffffff1673ffffffffffffffffffffffffffffffffffffffff16815260200190815260200160002060006101000a81548160ff0219169083151502179055508173ffffffffffffffffffffffffffffffffffffffff168373ffffffffffffffffffffffffffffffffffffffff167f17307eab39ab6107e8899845ad3d59bd9653f200f220920489ca2b5937696c318360405161171291906128c5565b60405180910390a3505050565b61172a848484611285565b61173684848484611c73565b611775576040517f08c379a000000000000000000000000000000000000000000000000000000000815260040161176c90612902565b60405180910390fd5b50505050565b606060405180602001604052806000815250905090565b606061179d8261107a565b6117dc576040517f08c379a00000000000000000000000000000000000000000000000000000000081526004016117d390612b02565b60405180910390fd5b60006117e661177b565b905060008151116118065760405180602001604052806000815250611831565b8061181084611e0a565b6040516020016118219291906127eb565b6040516020818303038152906040525b915050919050565b600081600001549050919050565b606060008251905060008114156118705760405180602001604052806000815250915050611a00565b600060036002836118819190612c47565b61188b9190612c9d565b60046118979190612cce565b905060006020826118a89190612c47565b67ffffffffffffffff8111156118e7577f4e487b7100000000000000000000000000000000000000000000000000000000600052604160045260246000fd5b6040519080825280601f01601f1916602001820160405280156119195781602001600182028036833780820191505090505b50905060006040518060600160405280604081526020016135d9604091399050600181016020830160005b868110156119bd5760038101905062ffffff818a015116603f8160121c168401518060081b905060ff603f83600c1c1686015116810190508060081b905060ff603f8360061c1686015116810190508060081b905060ff603f831686015116810190508060e01b90508084526004840193505050611944565b5060038606600181146119d757600281146119e7576119f2565b613d3d60f01b60028303526119f2565b603d60f81b60018303525b508484525050819450505050505b919050565b6001816000016000828254019250508190555050565b600073ffffffffffffffffffffffffffffffffffffffff168273ffffffffffffffffffffffffffffffffffffffff161415611a8b576040517f08c379a0000000000000000000000000000000000000000000000000000000008152600401611a8290612a62565b60405180910390fd5b611a948161107a565b15611ad4576040517f08c379a0000000000000000000000000000000000000000000000000000000008152600401611acb90612962565b60405180910390fd5b611ae060008383611c69565b6001600360008473ffffffffffffffffffffffffffffffffffffffff1673ffffffffffffffffffffffffffffffffffffffff1681526020019081526020016000206000828254611b309190612c47565b92505081905550816002600083815260200190815260200160002060006101000a81548173ffffffffffffffffffffffffffffffffffffffff021916908373ffffffffffffffffffffffffffffffffffffffff160217905550808273ffffffffffffffffffffffffffffffffffffffff16600073ffffffffffffffffffffffffffffffffffffffff167fddf252ad1be2c89b69c2b068fc378daa952ba7f163c4a11628f55a4df523b3ef60405160405180910390a4611bf160008383611c6e565b5050565b611bfe8261107a565b611c3d576040517f08c379a0000000000000000000000000000000000000000000000000000000008152600401611c3490612a42565b60405180910390fd5b80600660008481526020019081526020016000209080519060200190611c64929190611fda565b505050565b505050565b505050565b6000611c948473ffffffffffffffffffffffffffffffffffffffff16611fb7565b15611dfd578373ffffffffffffffffffffffffffffffffffffffff1663150b7a02611cbd6110e6565b8786866040518563ffffffff1660e01b8152600401611cdf9493929190612879565b602060405180830381600087803b158015611cf957600080fd5b505af1925050508015611d2a57506040513d601f19601f82011682018060405250810190611d279190612386565b60015b611dad573d8060008114611d5a576040519150601f19603f3d011682016040523d82523d6000602084013e611d5f565b606091505b50600081511415611da5576040517f08c379a0000000000000000000000000000000000000000000000000000000008152600401611d9c90612902565b60405180910390fd5b805181602001fd5b63150b7a0260e01b7bffffffffffffffffffffffffffffffffffffffffffffffffffffffff1916817bffffffffffffffffffffffffffffffffffffffffffffffffffffffff191614915050611e02565b600190505b949350505050565b60606000821415611e52576040518060400160405280600181526020017f30000000000000000000000000000000000000000000000000000000000000008152509050611fb2565b600082905060005b60008214611e84578080611e6d90612e75565b915050600a82611e7d9190612c9d565b9150611e5a565b60008167ffffffffffffffff811115611ec6577f4e487b7100000000000000000000000000000000000000000000000000000000600052604160045260246000fd5b6040519080825280601f01601f191660200182016040528015611ef85781602001600182028036833780820191505090505b5090505b60008514611fab57600182611f119190612d28565b9150600a85611f209190612ebe565b6030611f2c9190612c47565b60f81b818381518110611f68577f4e487b7100000000000000000000000000000000000000000000000000000000600052603260045260246000fd5b60200101907effffffffffffffffffffffffffffffffffffffffffffffffffffffffffffff1916908160001a905350600a85611fa49190612c9d565b9450611efc565b8093505050505b919050565b6000808273ffffffffffffffffffffffffffffffffffffffff163b119050919050565b828054611fe690612e12565b90600052602060002090601f016020900481019282612008576000855561204f565b82601f1061202157805160ff191683800117855561204f565b8280016001018555821561204f579182015b8281111561204e578251825591602001919060010190612033565b5b50905061205c9190612060565b5090565b5b80821115612079576000816000905550600101612061565b5090565b600061209061208b84612ba2565b612b7d565b9050828152602081018484840111156120a857600080fd5b6120b3848285612dd0565b509392505050565b60006120ce6120c984612bd3565b612b7d565b9050828152602081018484840111156120e657600080fd5b6120f1848285612dd0565b509392505050565b6000813590506121088161357c565b92915050565b60008135905061211d81613593565b92915050565b600081359050612132816135aa565b92915050565b600081519050612147816135aa565b92915050565b600082601f83011261215e57600080fd5b813561216e84826020860161207d565b91505092915050565b600082601f83011261218857600080fd5b81356121988482602086016120bb565b91505092915050565b6000813590506121b0816135c1565b92915050565b6000602082840312156121c857600080fd5b60006121d6848285016120f9565b91505092915050565b600080604083850312156121f257600080fd5b6000612200858286016120f9565b9250506020612211858286016120f9565b9150509250929050565b60008060006060848603121561223057600080fd5b600061223e868287016120f9565b935050602061224f868287016120f9565b9250506040612260868287016121a1565b9150509250925092565b6000806000806080858703121561228057600080fd5b600061228e878288016120f9565b945050602061229f878288016120f9565b93505060406122b0878288016121a1565b925050606085013567ffffffffffffffff8111156122cd57600080fd5b6122d98782880161214d565b91505092959194509250565b600080604083850312156122f857600080fd5b6000612306858286016120f9565b92505060206123178582860161210e565b9150509250929050565b6000806040838503121561233457600080fd5b6000612342858286016120f9565b9250506020612353858286016121a1565b9150509250929050565b60006020828403121561236f57600080fd5b600061237d84828501612123565b91505092915050565b60006020828403121561239857600080fd5b60006123a684828501612138565b91505092915050565b6000602082840312156123c157600080fd5b600082013567ffffffffffffffff8111156123db57600080fd5b6123e784828501612177565b91505092915050565b60006020828403121561240257600080fd5b6000612410848285016121a1565b91505092915050565b61242281612d5c565b82525050565b61243181612d6e565b82525050565b600061244282612c04565b61244c8185612c1a565b935061245c818560208601612ddf565b61246581612fab565b840191505092915050565b600061247b82612c0f565b6124858185612c2b565b9350612495818560208601612ddf565b61249e81612fab565b840191505092915050565b60006124b482612c0f565b6124be8185612c3c565b93506124ce818560208601612ddf565b80840191505092915050565b60006124e7603283612c2b565b91506124f282612fbc565b604082019050919050565b600061250a602683612c2b565b91506125158261300b565b604082019050919050565b600061252d603583612c3c565b91506125388261305a565b603582019050919050565b6000612550602583612c2b565b915061255b826130a9565b604082019050919050565b6000612573601c83612c2b565b915061257e826130f8565b602082019050919050565b6000612596602483612c2b565b91506125a182613121565b604082019050919050565b60006125b9601983612c2b565b91506125c482613170565b602082019050919050565b60006125dc602c83612c2b565b91506125e782613199565b604082019050919050565b60006125ff603883612c2b565b915061260a826131e8565b604082019050919050565b6000612622602a83612c2b565b915061262d82613237565b604082019050919050565b6000612645602983612c2b565b915061265082613286565b604082019050919050565b6000612668602e83612c2b565b9150612673826132d5565b604082019050919050565b600061268b600283612c3c565b915061269682613324565b600282019050919050565b60006126ae602083612c2b565b91506126b98261334d565b602082019050919050565b60006126d1603183612c2b565b91506126dc82613376565b604082019050919050565b60006126f4602c83612c2b565b91506126ff826133c5565b604082019050919050565b6000612717601a83612c2b565b915061272282613414565b602082019050919050565b600061273a602083612c2b565b91506127458261343d565b602082019050919050565b600061275d602f83612c2b565b915061276882613466565b604082019050919050565b6000612780602183612c2b565b915061278b826134b5565b604082019050919050565b60006127a3601d83612c3c565b91506127ae82613504565b601d82019050919050565b60006127c6603183612c2b565b91506127d18261352d565b604082019050919050565b6127e581612dc6565b82525050565b60006127f782856124a9565b915061280382846124a9565b91508190509392505050565b600061281a82612520565b915061282682846124a9565b91506128318261267e565b915081905092915050565b600061284782612796565b915061285382846124a9565b915081905092915050565b60006020820190506128736000830184612419565b92915050565b600060808201905061288e6000830187612419565b61289b6020830186612419565b6128a860408301856127dc565b81810360608301526128ba8184612437565b905095945050505050565b60006020820190506128da6000830184612428565b92915050565b600060208201905081810360008301526128fa8184612470565b905092915050565b6000602082019050818103600083015261291b816124da565b9050919050565b6000602082019050818103600083015261293b816124fd565b9050919050565b6000602082019050818103600083015261295b81612543565b9050919050565b6000602082019050818103600083015261297b81612566565b9050919050565b6000602082019050818103600083015261299b81612589565b9050919050565b600060208201905081810360008301526129bb816125ac565b9050919050565b600060208201905081810360008301526129db816125cf565b9050919050565b600060208201905081810360008301526129fb816125f2565b9050919050565b60006020820190508181036000830152612a1b81612615565b9050919050565b60006020820190508181036000830152612a3b81612638565b9050919050565b60006020820190508181036000830152612a5b8161265b565b9050919050565b60006020820190508181036000830152612a7b816126a1565b9050919050565b60006020820190508181036000830152612a9b816126c4565b9050919050565b60006020820190508181036000830152612abb816126e7565b9050919050565b60006020820190508181036000830152612adb8161270a565b9050919050565b60006020820190508181036000830152612afb8161272d565b9050919050565b60006020820190508181036000830152612b1b81612750565b9050919050565b60006020820190508181036000830152612b3b81612773565b9050919050565b60006020820190508181036000830152612b5b816127b9565b9050919050565b6000602082019050612b7760008301846127dc565b92915050565b6000612b87612b98565b9050612b938282612e44565b919050565b6000604051905090565b600067ffffffffffffffff821115612bbd57612bbc612f7c565b5b612bc682612fab565b9050602081019050919050565b600067ffffffffffffffff821115612bee57612bed612f7c565b5b612bf782612fab565b9050602081019050919050565b600081519050919050565b600081519050919050565b600082825260208201905092915050565b600082825260208201905092915050565b600081905092915050565b6000612c5282612dc6565b9150612c5d83612dc6565b9250827fffffffffffffffffffffffffffffffffffffffffffffffffffffffffffffffff03821115612c9257612c91612eef565b5b828201905092915050565b6000612ca882612dc6565b9150612cb383612dc6565b925082612cc357612cc2612f1e565b5b828204905092915050565b6000612cd982612dc6565b9150612ce483612dc6565b9250817fffffffffffffffffffffffffffffffffffffffffffffffffffffffffffffffff0483118215151615612d1d57612d1c612eef565b5b828202905092915050565b6000612d3382612dc6565b9150612d3e83612dc6565b925082821015612d5157612d50612eef565b5b828203905092915050565b6000612d6782612da6565b9050919050565b60008115159050919050565b60007fffffffff0000000000000000000000000000000000000000000000000000000082169050919050565b600073ffffffffffffffffffffffffffffffffffffffff82169050919050565b6000819050919050565b82818337600083830152505050565b60005b83811015612dfd578082015181840152602081019050612de2565b83811115612e0c576000848401525b50505050565b60006002820490506001821680612e2a57607f821691505b60208210811415612e3e57612e3d612f4d565b5b50919050565b612e4d82612fab565b810181811067ffffffffffffffff82111715612e6c57612e6b612f7c565b5b80604052505050565b6000612e8082612dc6565b91507fffffffffffffffffffffffffffffffffffffffffffffffffffffffffffffffff821415612eb357612eb2612eef565b5b600182019050919050565b6000612ec982612dc6565b9150612ed483612dc6565b925082612ee457612ee3612f1e565b5b828206905092915050565b7f4e487b7100000000000000000000000000000000000000000000000000000000600052601160045260246000fd5b7f4e487b7100000000000000000000000000000000000000000000000000000000600052601260045260246000fd5b7f4e487b7100000000000000000000000000000000000000000000000000000000600052602260045260246000fd5b7f4e487b7100000000000000000000000000000000000000000000000000000000600052604160045260246000fd5b6000601f19601f8301169050919050565b7f4552433732313a207472616e7366657220746f206e6f6e20455243373231526560008201527f63656976657220696d706c656d656e7465720000000000000000000000000000602082015250565b7f4f776e61626c653a206e6577206f776e657220697320746865207a65726f206160008201527f6464726573730000000000000000000000000000000000000000000000000000602082015250565b7f7b226465736372697074696f6e223a202253617665556b7261696e654e46542060008201527f646f6e6174696f6e222c2022696d616765223a20220000000000000000000000602082015250565b7f4552433732313a207472616e736665722066726f6d20696e636f72726563742060008201527f6f776e6572000000000000000000000000000000000000000000000000000000602082015250565b7f4552433732313a20746f6b656e20616c7265616479206d696e74656400000000600082015250565b7f4552433732313a207472616e7366657220746f20746865207a65726f2061646460008201527f7265737300000000000000000000000000000000000000000000000000000000602082015250565b7f4552433732313a20617070726f766520746f2063616c6c657200000000000000600082015250565b7f4552433732313a206f70657261746f7220717565727920666f72206e6f6e657860008201527f697374656e7420746f6b656e0000000000000000000000000000000000000000602082015250565b7f4552433732313a20617070726f76652063616c6c6572206973206e6f74206f7760008201527f6e6572206e6f7220617070726f76656420666f7220616c6c0000000000000000602082015250565b7f4552433732313a2062616c616e636520717565727920666f7220746865207a6560008201527f726f206164647265737300000000000000000000000000000000000000000000602082015250565b7f4552433732313a206f776e657220717565727920666f72206e6f6e657869737460008201527f656e7420746f6b656e0000000000000000000000000000000000000000000000602082015250565b7f45524337323155524953746f726167653a2055524920736574206f66206e6f6e60008201527f6578697374656e7420746f6b656e000000000000000000000000000000000000602082015250565b7f227d000000000000000000000000000000000000000000000000000000000000600082015250565b7f4552433732313a206d696e7420746f20746865207a65726f2061646472657373600082015250565b7f45524337323155524953746f726167653a2055524920717565727920666f722060008201527f6e6f6e6578697374656e7420746f6b656e000000000000000000000000000000602082015250565b7f4552433732313a20617070726f76656420717565727920666f72206e6f6e657860008201527f697374656e7420746f6b656e0000000000000000000000000000000000000000602082015250565b7f4d696e696d756d2031204d61746963206973206e6f74206d6574000000000000600082015250565b7f4f776e61626c653a2063616c6c6572206973206e6f7420746865206f776e6572600082015250565b7f4552433732314d657461646174613a2055524920717565727920666f72206e6f60008201527f6e6578697374656e7420746f6b656e0000000000000000000000000000000000602082015250565b7f4552433732313a20617070726f76616c20746f2063757272656e74206f776e6560008201527f7200000000000000000000000000000000000000000000000000000000000000602082015250565b7f646174613a6170706c69636174696f6e2f6a736f6e3b6261736536342c000000600082015250565b7f4552433732313a207472616e736665722063616c6c6572206973206e6f74206f60008201527f776e6572206e6f7220617070726f766564000000000000000000000000000000602082015250565b61358581612d5c565b811461359057600080fd5b50565b61359c81612d6e565b81146135a757600080fd5b50565b6135b381612d7a565b81146135be57600080fd5b50565b6135ca81612dc6565b81146135d557600080fd5b5056fe4142434445464748494a4b4c4d4e4f505152535455565758595a6162636465666768696a6b6c6d6e6f707172737475767778797a303132333435363738392b2fa2646970667358221220283146982962a2c6dff1c358b72d56b4eb3a3210a89a263a68dfcf52238ead2e64736f6c63430008010033",
  "linkReferences": {},
  "deployedLinkReferences": {}
}