{
  "_format": "hh-sol-artifact-1",
  "contractName": "UkraineArtCoNFT",
  "sourceName": "contracts/NFTGiveaway.sol",
  "abi": [
    {
      "inputs": [],
      "stateMutability": "nonpayable",
      "type": "constructor"
    },
    {
      "anonymous": false,
      "inputs": [
        {
          "indexed": true,
          "internalType": "address",
          "name": "account",
          "type": "address"
        },
        {
          "indexed": true,
          "internalType": "address",
          "name": "operator",
          "type": "address"
        },
        {
          "indexed": false,
          "internalType": "bool",
          "name": "approved",
          "type": "bool"
        }
      ],
      "name": "ApprovalForAll",
      "type": "event"
    },
    {
      "anonymous": false,
      "inputs": [
        {
          "indexed": true,
          "internalType": "uint256",
          "name": "tokenId",
          "type": "uint256"
        },
        {
          "indexed": false,
          "internalType": "address",
          "name": "owner",
          "type": "address"
        }
      ],
      "name": "MarketItemSold",
      "type": "event"
    },
    {
      "anonymous": false,
      "inputs": [
        {
          "indexed": true,
          "internalType": "address",
          "name": "previousOwner",
          "type": "address"
        },
        {
          "indexed": true,
          "internalType": "address",
          "name": "newOwner",
          "type": "address"
        }
      ],
      "name": "OwnershipTransferred",
      "type": "event"
    },
    {
      "anonymous": false,
      "inputs": [
        {
          "indexed": true,
          "internalType": "address",
          "name": "operator",
          "type": "address"
        },
        {
          "indexed": true,
          "internalType": "address",
          "name": "from",
          "type": "address"
        },
        {
          "indexed": true,
          "internalType": "address",
          "name": "to",
          "type": "address"
        },
        {
          "indexed": false,
          "internalType": "uint256[]",
          "name": "ids",
          "type": "uint256[]"
        },
        {
          "indexed": false,
          "internalType": "uint256[]",
          "name": "values",
          "type": "uint256[]"
        }
      ],
      "name": "TransferBatch",
      "type": "event"
    },
    {
      "anonymous": false,
      "inputs": [
        {
          "indexed": true,
          "internalType": "address",
          "name": "operator",
          "type": "address"
        },
        {
          "indexed": true,
          "internalType": "address",
          "name": "from",
          "type": "address"
        },
        {
          "indexed": true,
          "internalType": "address",
          "name": "to",
          "type": "address"
        },
        {
          "indexed": false,
          "internalType": "uint256",
          "name": "id",
          "type": "uint256"
        },
        {
          "indexed": false,
          "internalType": "uint256",
          "name": "value",
          "type": "uint256"
        }
      ],
      "name": "TransferSingle",
      "type": "event"
    },
    {
      "anonymous": false,
      "inputs": [
        {
          "indexed": false,
          "internalType": "string",
          "name": "value",
          "type": "string"
        },
        {
          "indexed": true,
          "internalType": "uint256",
          "name": "id",
          "type": "uint256"
        }
      ],
      "name": "URI",
      "type": "event"
    },
    {
      "inputs": [
        {
          "internalType": "address",
          "name": "account",
          "type": "address"
        },
        {
          "internalType": "uint256",
          "name": "id",
          "type": "uint256"
        }
      ],
      "name": "balanceOf",
      "outputs": [
        {
          "internalType": "uint256",
          "name": "",
          "type": "uint256"
        }
      ],
      "stateMutability": "view",
      "type": "function"
    },
    {
      "inputs": [
        {
          "internalType": "address[]",
          "name": "accounts",
          "type": "address[]"
        },
        {
          "internalType": "uint256[]",
          "name": "ids",
          "type": "uint256[]"
        }
      ],
      "name": "balanceOfBatch",
      "outputs": [
        {
          "internalType": "uint256[]",
          "name": "",
          "type": "uint256[]"
        }
      ],
      "stateMutability": "view",
      "type": "function"
    },
    {
      "inputs": [],
      "name": "charityDestinationWallet",
      "outputs": [
        {
          "internalType": "address payable",
          "name": "",
          "type": "address"
        }
      ],
      "stateMutability": "view",
      "type": "function"
    },
    {
      "inputs": [
        {
          "internalType": "address",
          "name": "account",
          "type": "address"
        },
        {
          "internalType": "address",
          "name": "operator",
          "type": "address"
        }
      ],
      "name": "isApprovedForAll",
      "outputs": [
        {
          "internalType": "bool",
          "name": "",
          "type": "bool"
        }
      ],
      "stateMutability": "view",
      "type": "function"
    },
    {
      "inputs": [
        {
          "internalType": "uint256",
          "name": "",
          "type": "uint256"
        }
      ],
      "name": "marketItems",
      "outputs": [
        {
          "internalType": "uint256",
          "name": "",
          "type": "uint256"
        }
      ],
      "stateMutability": "view",
      "type": "function"
    },
    {
      "inputs": [
        {
          "internalType": "string",
          "name": "tokenUri",
          "type": "string"
        }
      ],
      "name": "mint",
      "outputs": [
        {
          "internalType": "uint256",
          "name": "",
          "type": "uint256"
        }
      ],
      "stateMutability": "payable",
      "type": "function"
    },
    {
      "inputs": [],
      "name": "owner",
      "outputs": [
        {
          "internalType": "address",
          "name": "",
          "type": "address"
        }
      ],
      "stateMutability": "view",
      "type": "function"
    },
    {
      "inputs": [],
      "name": "renounceOwnership",
      "outputs": [],
      "stateMutability": "nonpayable",
      "type": "function"
    },
    {
      "inputs": [
        {
          "internalType": "address",
          "name": "from",
          "type": "address"
        },
        {
          "internalType": "address",
          "name": "to",
          "type": "address"
        },
        {
          "internalType": "uint256[]",
          "name": "ids",
          "type": "uint256[]"
        },
        {
          "internalType": "uint256[]",
          "name": "amounts",
          "type": "uint256[]"
        },
        {
          "internalType": "bytes",
          "name": "data",
          "type": "bytes"
        }
      ],
      "name": "safeBatchTransferFrom",
      "outputs": [],
      "stateMutability": "nonpayable",
      "type": "function"
    },
    {
      "inputs": [
        {
          "internalType": "address",
          "name": "from",
          "type": "address"
        },
        {
          "internalType": "address",
          "name": "to",
          "type": "address"
        },
        {
          "internalType": "uint256",
          "name": "id",
          "type": "uint256"
        },
        {
          "internalType": "uint256",
          "name": "amount",
          "type": "uint256"
        },
        {
          "internalType": "bytes",
          "name": "data",
          "type": "bytes"
        }
      ],
      "name": "safeTransferFrom",
      "outputs": [],
      "stateMutability": "nonpayable",
      "type": "function"
    },
    {
      "inputs": [
        {
          "internalType": "address",
          "name": "operator",
          "type": "address"
        },
        {
          "internalType": "bool",
          "name": "approved",
          "type": "bool"
        }
      ],
      "name": "setApprovalForAll",
      "outputs": [],
      "stateMutability": "nonpayable",
      "type": "function"
    },
    {
      "inputs": [
        {
          "internalType": "string",
          "name": "newUri",
          "type": "string"
        }
      ],
      "name": "setURI",
      "outputs": [],
      "stateMutability": "nonpayable",
      "type": "function"
    },
    {
      "inputs": [
        {
          "internalType": "bytes4",
          "name": "interfaceId",
          "type": "bytes4"
        }
      ],
      "name": "supportsInterface",
      "outputs": [
        {
          "internalType": "bool",
          "name": "",
          "type": "bool"
        }
      ],
      "stateMutability": "view",
      "type": "function"
    },
    {
      "inputs": [
        {
          "internalType": "address",
          "name": "newOwner",
          "type": "address"
        }
      ],
      "name": "transferOwnership",
      "outputs": [],
      "stateMutability": "nonpayable",
      "type": "function"
    },
    {
      "inputs": [
        {
          "internalType": "uint256",
          "name": "",
          "type": "uint256"
        }
      ],
      "name": "uri",
      "outputs": [
        {
          "internalType": "string",
          "name": "",
          "type": "string"
        }
      ],
      "stateMutability": "view",
      "type": "function"
    }
  ],
  "bytecode": "0x60806040523480156200001157600080fd5b50604051806020016040528060008152506200003381620000af60201b60201c565b506200005462000048620000cb60201b60201c565b620000d360201b60201c565b73eceb956b4cb1ca73205d47a645beb872a31accd8600560006101000a81548173ffffffffffffffffffffffffffffffffffffffff021916908373ffffffffffffffffffffffffffffffffffffffff160217905550620002ae565b8060029080519060200190620000c792919062000199565b5050565b600033905090565b6000600360009054906101000a900473ffffffffffffffffffffffffffffffffffffffff16905081600360006101000a81548173ffffffffffffffffffffffffffffffffffffffff021916908373ffffffffffffffffffffffffffffffffffffffff1602179055508173ffffffffffffffffffffffffffffffffffffffff168173ffffffffffffffffffffffffffffffffffffffff167f8be0079c531659141344cd1fd0a4f28419497f9722a3daafe3b4186f6b6457e060405160405180910390a35050565b828054620001a79062000249565b90600052602060002090601f016020900481019282620001cb576000855562000217565b82601f10620001e657805160ff191683800117855562000217565b8280016001018555821562000217579182015b8281111562000216578251825591602001919060010190620001f9565b5b5090506200022691906200022a565b5090565b5b80821115620002455760008160009055506001016200022b565b5090565b600060028204905060018216806200026257607f821691505b602082108114156200027957620002786200027f565b5b50919050565b7f4e487b7100000000000000000000000000000000000000000000000000000000600052602260045260246000fd5b61329480620002be6000396000f3fe6080604052600436106100e75760003560e01c8063715018a61161008a578063dee442b111610059578063dee442b11461030a578063e985e9c514610335578063f242432a14610372578063f2fde38b1461039b576100e7565b8063715018a61461026f5780638da5cb5b14610286578063a22cb465146102b1578063d85d3d27146102da576100e7565b80630e89341c116100c65780630e89341c1461018f5780632eb2c2d6146101cc5780634e1273f4146101f557806351f28e1414610232576100e7565b8062fdd58e146100ec57806301ffc9a71461012957806302fe530514610166575b600080fd5b3480156100f857600080fd5b50610113600480360381019061010e919061216c565b6103c4565b604051610120919061293b565b60405180910390f35b34801561013557600080fd5b50610150600480360381019061014b9190612214565b61048d565b60405161015d919061273e565b60405180910390f35b34801561017257600080fd5b5061018d60048036038101906101889190612266565b61056f565b005b34801561019b57600080fd5b506101b660048036038101906101b191906122a7565b6105f7565b6040516101c39190612759565b60405180910390f35b3480156101d857600080fd5b506101f360048036038101906101ee9190611fe2565b61068b565b005b34801561020157600080fd5b5061021c600480360381019061021791906121a8565b61072c565b60405161022991906126e5565b60405180910390f35b34801561023e57600080fd5b50610259600480360381019061025491906122a7565b6108dd565b604051610266919061293b565b60405180910390f35b34801561027b57600080fd5b506102846108f5565b005b34801561029257600080fd5b5061029b61097d565b6040516102a891906125ed565b60405180910390f35b3480156102bd57600080fd5b506102d860048036038101906102d39190612130565b6109a7565b005b6102f460048036038101906102ef9190612266565b6109bd565b604051610301919061293b565b60405180910390f35b34801561031657600080fd5b5061031f610b08565b60405161032c9190612608565b60405180910390f35b34801561034157600080fd5b5061035c60048036038101906103579190611fa6565b610b2e565b604051610369919061273e565b60405180910390f35b34801561037e57600080fd5b50610399600480360381019061039491906120a1565b610bc2565b005b3480156103a757600080fd5b506103c260048036038101906103bd9190611f7d565b610c63565b005b60008073ffffffffffffffffffffffffffffffffffffffff168373ffffffffffffffffffffffffffffffffffffffff161415610435576040517f08c379a000000000000000000000000000000000000000000000000000000000815260040161042c906127bb565b60405180910390fd5b60008083815260200190815260200160002060008473ffffffffffffffffffffffffffffffffffffffff1673ffffffffffffffffffffffffffffffffffffffff16815260200190815260200160002054905092915050565b60007fd9b67a26000000000000000000000000000000000000000000000000000000007bffffffffffffffffffffffffffffffffffffffffffffffffffffffff1916827bffffffffffffffffffffffffffffffffffffffffffffffffffffffff1916148061055857507f0e89341c000000000000000000000000000000000000000000000000000000007bffffffffffffffffffffffffffffffffffffffffffffffffffffffff1916827bffffffffffffffffffffffffffffffffffffffffffffffffffffffff1916145b80610568575061056782610d5b565b5b9050919050565b610577610dc5565b73ffffffffffffffffffffffffffffffffffffffff1661059561097d565b73ffffffffffffffffffffffffffffffffffffffff16146105eb576040517f08c379a00000000000000000000000000000000000000000000000000000000081526004016105e29061287b565b60405180910390fd5b6105f481610dcd565b50565b60606002805461060690612bed565b80601f016020809104026020016040519081016040528092919081815260200182805461063290612bed565b801561067f5780601f106106545761010080835404028352916020019161067f565b820191906000526020600020905b81548152906001019060200180831161066257829003601f168201915b50505050509050919050565b610693610dc5565b73ffffffffffffffffffffffffffffffffffffffff168573ffffffffffffffffffffffffffffffffffffffff1614806106d957506106d8856106d3610dc5565b610b2e565b5b610718576040517f08c379a000000000000000000000000000000000000000000000000000000000815260040161070f9061283b565b60405180910390fd5b6107258585858585610de7565b5050505050565b60608151835114610772576040517f08c379a0000000000000000000000000000000000000000000000000000000008152600401610769906128db565b60405180910390fd5b6000835167ffffffffffffffff8111156107b5577f4e487b7100000000000000000000000000000000000000000000000000000000600052604160045260246000fd5b6040519080825280602002602001820160405280156107e35781602001602082028036833780820191505090505b50905060005b84518110156108d25761087c85828151811061082e577f4e487b7100000000000000000000000000000000000000000000000000000000600052603260045260246000fd5b602002602001015185838151811061086f577f4e487b7100000000000000000000000000000000000000000000000000000000600052603260045260246000fd5b60200260200101516103c4565b8282815181106108b5577f4e487b7100000000000000000000000000000000000000000000000000000000600052603260045260246000fd5b602002602001018181525050806108cb90612c50565b90506107e9565b508091505092915050565b60066020528060005260406000206000915090505481565b6108fd610dc5565b73ffffffffffffffffffffffffffffffffffffffff1661091b61097d565b73ffffffffffffffffffffffffffffffffffffffff1614610971576040517f08c379a00000000000000000000000000000000000000000000000000000000081526004016109689061287b565b60405180910390fd5b61097b6000611147565b565b6000600360009054906101000a900473ffffffffffffffffffffffffffffffffffffffff16905090565b6109b96109b2610dc5565b838361120d565b5050565b6000666a94d74f430000341015610a09576040517f08c379a0000000000000000000000000000000000000000000000000000000008152600401610a009061289b565b60405180910390fd5b6000610a15600461137a565b9050346006600083815260200190815260200160002081905550610a4b3382600160405180602001604052806000815250611388565b610a5483610dcd565b610a5e600461151e565b807f2073b2706c235effb1e3840575370a51749afd8181b4018f93bff955d50792cb33604051610a8e91906125ed565b60405180910390a2600560009054906101000a900473ffffffffffffffffffffffffffffffffffffffff1673ffffffffffffffffffffffffffffffffffffffff166108fc349081150290604051600060405180830381858888f19350505050158015610afe573d6000803e3d6000fd5b5080915050919050565b600560009054906101000a900473ffffffffffffffffffffffffffffffffffffffff1681565b6000600160008473ffffffffffffffffffffffffffffffffffffffff1673ffffffffffffffffffffffffffffffffffffffff16815260200190815260200160002060008373ffffffffffffffffffffffffffffffffffffffff1673ffffffffffffffffffffffffffffffffffffffff16815260200190815260200160002060009054906101000a900460ff16905092915050565b610bca610dc5565b73ffffffffffffffffffffffffffffffffffffffff168573ffffffffffffffffffffffffffffffffffffffff161480610c105750610c0f85610c0a610dc5565b610b2e565b5b610c4f576040517f08c379a0000000000000000000000000000000000000000000000000000000008152600401610c46906127fb565b60405180910390fd5b610c5c8585858585611534565b5050505050565b610c6b610dc5565b73ffffffffffffffffffffffffffffffffffffffff16610c8961097d565b73ffffffffffffffffffffffffffffffffffffffff1614610cdf576040517f08c379a0000000000000000000000000000000000000000000000000000000008152600401610cd69061287b565b60405180910390fd5b600073ffffffffffffffffffffffffffffffffffffffff168173ffffffffffffffffffffffffffffffffffffffff161415610d4f576040517f08c379a0000000000000000000000000000000000000000000000000000000008152600401610d46906127db565b60405180910390fd5b610d5881611147565b50565b60007f01ffc9a7000000000000000000000000000000000000000000000000000000007bffffffffffffffffffffffffffffffffffffffffffffffffffffffff1916827bffffffffffffffffffffffffffffffffffffffffffffffffffffffff1916149050919050565b600033905090565b8060029080519060200190610de3929190611c75565b5050565b8151835114610e2b576040517f08c379a0000000000000000000000000000000000000000000000000000000008152600401610e22906128fb565b60405180910390fd5b600073ffffffffffffffffffffffffffffffffffffffff168473ffffffffffffffffffffffffffffffffffffffff161415610e9b576040517f08c379a0000000000000000000000000000000000000000000000000000000008152600401610e929061281b565b60405180910390fd5b6000610ea5610dc5565b9050610eb58187878787876117b6565b60005b84518110156110b2576000858281518110610efc577f4e487b7100000000000000000000000000000000000000000000000000000000600052603260045260246000fd5b602002602001015190506000858381518110610f41577f4e487b7100000000000000000000000000000000000000000000000000000000600052603260045260246000fd5b60200260200101519050600080600084815260200190815260200160002060008b73ffffffffffffffffffffffffffffffffffffffff1673ffffffffffffffffffffffffffffffffffffffff16815260200190815260200160002054905081811015610fe2576040517f08c379a0000000000000000000000000000000000000000000000000000000008152600401610fd99061285b565b60405180910390fd5b81810360008085815260200190815260200160002060008c73ffffffffffffffffffffffffffffffffffffffff1673ffffffffffffffffffffffffffffffffffffffff168152602001908152602001600020819055508160008085815260200190815260200160002060008b73ffffffffffffffffffffffffffffffffffffffff1673ffffffffffffffffffffffffffffffffffffffff16815260200190815260200160002060008282546110979190612acf565b92505081905550505050806110ab90612c50565b9050610eb8565b508473ffffffffffffffffffffffffffffffffffffffff168673ffffffffffffffffffffffffffffffffffffffff168273ffffffffffffffffffffffffffffffffffffffff167f4a39dc06d4c0dbc64b70af90fd698a233a518aa5d07e595d983b8c0526c8f7fb8787604051611129929190612707565b60405180910390a461113f8187878787876117be565b505050505050565b6000600360009054906101000a900473ffffffffffffffffffffffffffffffffffffffff16905081600360006101000a81548173ffffffffffffffffffffffffffffffffffffffff021916908373ffffffffffffffffffffffffffffffffffffffff1602179055508173ffffffffffffffffffffffffffffffffffffffff168173ffffffffffffffffffffffffffffffffffffffff167f8be0079c531659141344cd1fd0a4f28419497f9722a3daafe3b4186f6b6457e060405160405180910390a35050565b8173ffffffffffffffffffffffffffffffffffffffff168373ffffffffffffffffffffffffffffffffffffffff16141561127c576040517f08c379a0000000000000000000000000000000000000000000000000000000008152600401611273906128bb565b60405180910390fd5b80600160008573ffffffffffffffffffffffffffffffffffffffff1673ffffffffffffffffffffffffffffffffffffffff16815260200190815260200160002060008473ffffffffffffffffffffffffffffffffffffffff1673ffffffffffffffffffffffffffffffffffffffff16815260200190815260200160002060006101000a81548160ff0219169083151502179055508173ffffffffffffffffffffffffffffffffffffffff168373ffffffffffffffffffffffffffffffffffffffff167f17307eab39ab6107e8899845ad3d59bd9653f200f220920489ca2b5937696c318360405161136d919061273e565b60405180910390a3505050565b600081600001549050919050565b600073ffffffffffffffffffffffffffffffffffffffff168473ffffffffffffffffffffffffffffffffffffffff1614156113f8576040517f08c379a00000000000000000000000000000000000000000000000000000000081526004016113ef9061291b565b60405180910390fd5b6000611402610dc5565b905061142381600087611414886119a5565b61141d886119a5565b876117b6565b8260008086815260200190815260200160002060008773ffffffffffffffffffffffffffffffffffffffff1673ffffffffffffffffffffffffffffffffffffffff16815260200190815260200160002060008282546114829190612acf565b925050819055508473ffffffffffffffffffffffffffffffffffffffff16600073ffffffffffffffffffffffffffffffffffffffff168273ffffffffffffffffffffffffffffffffffffffff167fc3d58168c5ae7397731d063d5bbf3d657854427343f4c083240f7aacaa2d0f628787604051611500929190612956565b60405180910390a461151781600087878787611a6b565b5050505050565b6001816000016000828254019250508190555050565b600073ffffffffffffffffffffffffffffffffffffffff168473ffffffffffffffffffffffffffffffffffffffff1614156115a4576040517f08c379a000000000000000000000000000000000000000000000000000000000815260040161159b9061281b565b60405180910390fd5b60006115ae610dc5565b90506115ce8187876115bf886119a5565b6115c8886119a5565b876117b6565b600080600086815260200190815260200160002060008873ffffffffffffffffffffffffffffffffffffffff1673ffffffffffffffffffffffffffffffffffffffff16815260200190815260200160002054905083811015611665576040517f08c379a000000000000000000000000000000000000000000000000000000000815260040161165c9061285b565b60405180910390fd5b83810360008087815260200190815260200160002060008973ffffffffffffffffffffffffffffffffffffffff1673ffffffffffffffffffffffffffffffffffffffff168152602001908152602001600020819055508360008087815260200190815260200160002060008873ffffffffffffffffffffffffffffffffffffffff1673ffffffffffffffffffffffffffffffffffffffff168152602001908152602001600020600082825461171a9190612acf565b925050819055508573ffffffffffffffffffffffffffffffffffffffff168773ffffffffffffffffffffffffffffffffffffffff168373ffffffffffffffffffffffffffffffffffffffff167fc3d58168c5ae7397731d063d5bbf3d657854427343f4c083240f7aacaa2d0f628888604051611797929190612956565b60405180910390a46117ad828888888888611a6b565b50505050505050565b505050505050565b6117dd8473ffffffffffffffffffffffffffffffffffffffff16611c52565b1561199d578373ffffffffffffffffffffffffffffffffffffffff1663bc197c8187878686866040518663ffffffff1660e01b8152600401611823959493929190612623565b602060405180830381600087803b15801561183d57600080fd5b505af192505050801561186e57506040513d601f19601f8201168201806040525081019061186b919061223d565b60015b6119145761187a612d26565b806308c379a014156118d7575061188f61316c565b8061189a57506118d9565b806040517f08c379a00000000000000000000000000000000000000000000000000000000081526004016118ce9190612759565b60405180910390fd5b505b6040517f08c379a000000000000000000000000000000000000000000000000000000000815260040161190b9061277b565b60405180910390fd5b63bc197c8160e01b7bffffffffffffffffffffffffffffffffffffffffffffffffffffffff1916817bffffffffffffffffffffffffffffffffffffffffffffffffffffffff19161461199b576040517f08c379a00000000000000000000000000000000000000000000000000000000081526004016119929061279b565b60405180910390fd5b505b505050505050565b60606000600167ffffffffffffffff8111156119ea577f4e487b7100000000000000000000000000000000000000000000000000000000600052604160045260246000fd5b604051908082528060200260200182016040528015611a185781602001602082028036833780820191505090505b5090508281600081518110611a56577f4e487b7100000000000000000000000000000000000000000000000000000000600052603260045260246000fd5b60200260200101818152505080915050919050565b611a8a8473ffffffffffffffffffffffffffffffffffffffff16611c52565b15611c4a578373ffffffffffffffffffffffffffffffffffffffff1663f23a6e6187878686866040518663ffffffff1660e01b8152600401611ad095949392919061268b565b602060405180830381600087803b158015611aea57600080fd5b505af1925050508015611b1b57506040513d601f19601f82011682018060405250810190611b18919061223d565b60015b611bc157611b27612d26565b806308c379a01415611b845750611b3c61316c565b80611b475750611b86565b806040517f08c379a0000000000000000000000000000000000000000000000000000000008152600401611b7b9190612759565b60405180910390fd5b505b6040517f08c379a0000000000000000000000000000000000000000000000000000000008152600401611bb89061277b565b60405180910390fd5b63f23a6e6160e01b7bffffffffffffffffffffffffffffffffffffffffffffffffffffffff1916817bffffffffffffffffffffffffffffffffffffffffffffffffffffffff191614611c48576040517f08c379a0000000000000000000000000000000000000000000000000000000008152600401611c3f9061279b565b60405180910390fd5b505b505050505050565b6000808273ffffffffffffffffffffffffffffffffffffffff163b119050919050565b828054611c8190612bed565b90600052602060002090601f016020900481019282611ca35760008555611cea565b82601f10611cbc57805160ff1916838001178555611cea565b82800160010185558215611cea579182015b82811115611ce9578251825591602001919060010190611cce565b5b509050611cf79190611cfb565b5090565b5b80821115611d14576000816000905550600101611cfc565b5090565b6000611d2b611d26846129a4565b61297f565b90508083825260208201905082856020860282011115611d4a57600080fd5b60005b85811015611d7a5781611d608882611e6c565b845260208401935060208301925050600181019050611d4d565b5050509392505050565b6000611d97611d92846129d0565b61297f565b90508083825260208201905082856020860282011115611db657600080fd5b60005b85811015611de65781611dcc8882611f68565b845260208401935060208301925050600181019050611db9565b5050509392505050565b6000611e03611dfe846129fc565b61297f565b905082815260208101848484011115611e1b57600080fd5b611e26848285612bab565b509392505050565b6000611e41611e3c84612a2d565b61297f565b905082815260208101848484011115611e5957600080fd5b611e64848285612bab565b509392505050565b600081359050611e7b81613202565b92915050565b600082601f830112611e9257600080fd5b8135611ea2848260208601611d18565b91505092915050565b600082601f830112611ebc57600080fd5b8135611ecc848260208601611d84565b91505092915050565b600081359050611ee481613219565b92915050565b600081359050611ef981613230565b92915050565b600081519050611f0e81613230565b92915050565b600082601f830112611f2557600080fd5b8135611f35848260208601611df0565b91505092915050565b600082601f830112611f4f57600080fd5b8135611f5f848260208601611e2e565b91505092915050565b600081359050611f7781613247565b92915050565b600060208284031215611f8f57600080fd5b6000611f9d84828501611e6c565b91505092915050565b60008060408385031215611fb957600080fd5b6000611fc785828601611e6c565b9250506020611fd885828601611e6c565b9150509250929050565b600080600080600060a08688031215611ffa57600080fd5b600061200888828901611e6c565b955050602061201988828901611e6c565b945050604086013567ffffffffffffffff81111561203657600080fd5b61204288828901611eab565b935050606086013567ffffffffffffffff81111561205f57600080fd5b61206b88828901611eab565b925050608086013567ffffffffffffffff81111561208857600080fd5b61209488828901611f14565b9150509295509295909350565b600080600080600060a086880312156120b957600080fd5b60006120c788828901611e6c565b95505060206120d888828901611e6c565b94505060406120e988828901611f68565b93505060606120fa88828901611f68565b925050608086013567ffffffffffffffff81111561211757600080fd5b61212388828901611f14565b9150509295509295909350565b6000806040838503121561214357600080fd5b600061215185828601611e6c565b925050602061216285828601611ed5565b9150509250929050565b6000806040838503121561217f57600080fd5b600061218d85828601611e6c565b925050602061219e85828601611f68565b9150509250929050565b600080604083850312156121bb57600080fd5b600083013567ffffffffffffffff8111156121d557600080fd5b6121e185828601611e81565b925050602083013567ffffffffffffffff8111156121fe57600080fd5b61220a85828601611eab565b9150509250929050565b60006020828403121561222657600080fd5b600061223484828501611eea565b91505092915050565b60006020828403121561224f57600080fd5b600061225d84828501611eff565b91505092915050565b60006020828403121561227857600080fd5b600082013567ffffffffffffffff81111561229257600080fd5b61229e84828501611f3e565b91505092915050565b6000602082840312156122b957600080fd5b60006122c784828501611f68565b91505092915050565b60006122dc83836125cf565b60208301905092915050565b6122f181612b37565b82525050565b61230081612b25565b82525050565b600061231182612a6e565b61231b8185612a9c565b935061232683612a5e565b8060005b8381101561235757815161233e88826122d0565b975061234983612a8f565b92505060018101905061232a565b5085935050505092915050565b61236d81612b49565b82525050565b600061237e82612a79565b6123888185612aad565b9350612398818560208601612bba565b6123a181612d48565b840191505092915050565b60006123b782612a84565b6123c18185612abe565b93506123d1818560208601612bba565b6123da81612d48565b840191505092915050565b60006123f2603483612abe565b91506123fd82612d66565b604082019050919050565b6000612415602883612abe565b915061242082612db5565b604082019050919050565b6000612438602b83612abe565b915061244382612e04565b604082019050919050565b600061245b602683612abe565b915061246682612e53565b604082019050919050565b600061247e602983612abe565b915061248982612ea2565b604082019050919050565b60006124a1602583612abe565b91506124ac82612ef1565b604082019050919050565b60006124c4603283612abe565b91506124cf82612f40565b604082019050919050565b60006124e7602a83612abe565b91506124f282612f8f565b604082019050919050565b600061250a602083612abe565b915061251582612fde565b602082019050919050565b600061252d601c83612abe565b915061253882613007565b602082019050919050565b6000612550602983612abe565b915061255b82613030565b604082019050919050565b6000612573602983612abe565b915061257e8261307f565b604082019050919050565b6000612596602883612abe565b91506125a1826130ce565b604082019050919050565b60006125b9602183612abe565b91506125c48261311d565b604082019050919050565b6125d881612ba1565b82525050565b6125e781612ba1565b82525050565b600060208201905061260260008301846122f7565b92915050565b600060208201905061261d60008301846122e8565b92915050565b600060a08201905061263860008301886122f7565b61264560208301876122f7565b81810360408301526126578186612306565b9050818103606083015261266b8185612306565b9050818103608083015261267f8184612373565b90509695505050505050565b600060a0820190506126a060008301886122f7565b6126ad60208301876122f7565b6126ba60408301866125de565b6126c760608301856125de565b81810360808301526126d98184612373565b90509695505050505050565b600060208201905081810360008301526126ff8184612306565b905092915050565b600060408201905081810360008301526127218185612306565b905081810360208301526127358184612306565b90509392505050565b60006020820190506127536000830184612364565b92915050565b6000602082019050818103600083015261277381846123ac565b905092915050565b60006020820190508181036000830152612794816123e5565b9050919050565b600060208201905081810360008301526127b481612408565b9050919050565b600060208201905081810360008301526127d48161242b565b9050919050565b600060208201905081810360008301526127f48161244e565b9050919050565b6000602082019050818103600083015261281481612471565b9050919050565b6000602082019050818103600083015261283481612494565b9050919050565b60006020820190508181036000830152612854816124b7565b9050919050565b60006020820190508181036000830152612874816124da565b9050919050565b60006020820190508181036000830152612894816124fd565b9050919050565b600060208201905081810360008301526128b481612520565b9050919050565b600060208201905081810360008301526128d481612543565b9050919050565b600060208201905081810360008301526128f481612566565b9050919050565b6000602082019050818103600083015261291481612589565b9050919050565b60006020820190508181036000830152612934816125ac565b9050919050565b600060208201905061295060008301846125de565b92915050565b600060408201905061296b60008301856125de565b61297860208301846125de565b9392505050565b600061298961299a565b90506129958282612c1f565b919050565b6000604051905090565b600067ffffffffffffffff8211156129bf576129be612cf7565b5b602082029050602081019050919050565b600067ffffffffffffffff8211156129eb576129ea612cf7565b5b602082029050602081019050919050565b600067ffffffffffffffff821115612a1757612a16612cf7565b5b612a2082612d48565b9050602081019050919050565b600067ffffffffffffffff821115612a4857612a47612cf7565b5b612a5182612d48565b9050602081019050919050565b6000819050602082019050919050565b600081519050919050565b600081519050919050565b600081519050919050565b6000602082019050919050565b600082825260208201905092915050565b600082825260208201905092915050565b600082825260208201905092915050565b6000612ada82612ba1565b9150612ae583612ba1565b9250827fffffffffffffffffffffffffffffffffffffffffffffffffffffffffffffffff03821115612b1a57612b19612c99565b5b828201905092915050565b6000612b3082612b81565b9050919050565b6000612b4282612b81565b9050919050565b60008115159050919050565b60007fffffffff0000000000000000000000000000000000000000000000000000000082169050919050565b600073ffffffffffffffffffffffffffffffffffffffff82169050919050565b6000819050919050565b82818337600083830152505050565b60005b83811015612bd8578082015181840152602081019050612bbd565b83811115612be7576000848401525b50505050565b60006002820490506001821680612c0557607f821691505b60208210811415612c1957612c18612cc8565b5b50919050565b612c2882612d48565b810181811067ffffffffffffffff82111715612c4757612c46612cf7565b5b80604052505050565b6000612c5b82612ba1565b91507fffffffffffffffffffffffffffffffffffffffffffffffffffffffffffffffff821415612c8e57612c8d612c99565b5b600182019050919050565b7f4e487b7100000000000000000000000000000000000000000000000000000000600052601160045260246000fd5b7f4e487b7100000000000000000000000000000000000000000000000000000000600052602260045260246000fd5b7f4e487b7100000000000000000000000000000000000000000000000000000000600052604160045260246000fd5b600060033d1115612d455760046000803e612d42600051612d59565b90505b90565b6000601f19601f8301169050919050565b60008160e01c9050919050565b7f455243313135353a207472616e7366657220746f206e6f6e204552433131353560008201527f526563656976657220696d706c656d656e746572000000000000000000000000602082015250565b7f455243313135353a204552433131353552656365697665722072656a6563746560008201527f6420746f6b656e73000000000000000000000000000000000000000000000000602082015250565b7f455243313135353a2062616c616e636520717565727920666f7220746865207a60008201527f65726f2061646472657373000000000000000000000000000000000000000000602082015250565b7f4f776e61626c653a206e6577206f776e657220697320746865207a65726f206160008201527f6464726573730000000000000000000000000000000000000000000000000000602082015250565b7f455243313135353a2063616c6c6572206973206e6f74206f776e6572206e6f7260008201527f20617070726f7665640000000000000000000000000000000000000000000000602082015250565b7f455243313135353a207472616e7366657220746f20746865207a65726f20616460008201527f6472657373000000000000000000000000000000000000000000000000000000602082015250565b7f455243313135353a207472616e736665722063616c6c6572206973206e6f742060008201527f6f776e6572206e6f7220617070726f7665640000000000000000000000000000602082015250565b7f455243313135353a20696e73756666696369656e742062616c616e636520666f60008201527f72207472616e7366657200000000000000000000000000000000000000000000602082015250565b7f4f776e61626c653a2063616c6c6572206973206e6f7420746865206f776e6572600082015250565b7f4d696e696d756d20302e303320455448206973206e6f74206d65742e00000000600082015250565b7f455243313135353a2073657474696e6720617070726f76616c2073746174757360008201527f20666f722073656c660000000000000000000000000000000000000000000000602082015250565b7f455243313135353a206163636f756e747320616e6420696473206c656e67746860008201527f206d69736d617463680000000000000000000000000000000000000000000000602082015250565b7f455243313135353a2069647320616e6420616d6f756e7473206c656e6774682060008201527f6d69736d61746368000000000000000000000000000000000000000000000000602082015250565b7f455243313135353a206d696e7420746f20746865207a65726f2061646472657360008201527f7300000000000000000000000000000000000000000000000000000000000000602082015250565b600060443d101561317c576131ff565b61318461299a565b60043d036004823e80513d602482011167ffffffffffffffff821117156131ac5750506131ff565b808201805167ffffffffffffffff8111156131ca57505050506131ff565b80602083010160043d0385018111156131e75750505050506131ff565b6131f682602001850186612c1f565b82955050505050505b90565b61320b81612b25565b811461321657600080fd5b50565b61322281612b49565b811461322d57600080fd5b50565b61323981612b55565b811461324457600080fd5b50565b61325081612ba1565b811461325b57600080fd5b5056fea2646970667358221220a56405d8cedcb4ff5ed4e7c643b16b85756e07f446ca14cfa06f9a913227fc7c64736f6c63430008010033",
  "linkReferences": {},
  "deployedLinkReferences": {}
}